{
  "_format": "hh-sol-artifact-1",
  "contractName": "ClockNFT",
  "sourceName": "contracts/ClockNFT.sol",
  "abi": [
    {
      "inputs": [],
      "stateMutability": "nonpayable",
      "type": "constructor"
    },
    {
      "inputs": [
        {
          "internalType": "address",
          "name": "sender",
          "type": "address"
        },
        {
          "internalType": "uint256",
          "name": "tokenId",
          "type": "uint256"
        },
        {
          "internalType": "address",
          "name": "owner",
          "type": "address"
        }
      ],
      "name": "ERC721IncorrectOwner",
      "type": "error"
    },
    {
      "inputs": [
        {
          "internalType": "address",
          "name": "operator",
          "type": "address"
        },
        {
          "internalType": "uint256",
          "name": "tokenId",
          "type": "uint256"
        }
      ],
      "name": "ERC721InsufficientApproval",
      "type": "error"
    },
    {
      "inputs": [
        {
          "internalType": "address",
          "name": "approver",
          "type": "address"
        }
      ],
      "name": "ERC721InvalidApprover",
      "type": "error"
    },
    {
      "inputs": [
        {
          "internalType": "address",
          "name": "operator",
          "type": "address"
        }
      ],
      "name": "ERC721InvalidOperator",
      "type": "error"
    },
    {
      "inputs": [
        {
          "internalType": "address",
          "name": "owner",
          "type": "address"
        }
      ],
      "name": "ERC721InvalidOwner",
      "type": "error"
    },
    {
      "inputs": [
        {
          "internalType": "address",
          "name": "receiver",
          "type": "address"
        }
      ],
      "name": "ERC721InvalidReceiver",
      "type": "error"
    },
    {
      "inputs": [
        {
          "internalType": "address",
          "name": "sender",
          "type": "address"
        }
      ],
      "name": "ERC721InvalidSender",
      "type": "error"
    },
    {
      "inputs": [
        {
          "internalType": "uint256",
          "name": "tokenId",
          "type": "uint256"
        }
      ],
      "name": "ERC721NonexistentToken",
      "type": "error"
    },
    {
      "inputs": [
        {
          "internalType": "address",
          "name": "owner",
          "type": "address"
        }
      ],
      "name": "OwnableInvalidOwner",
      "type": "error"
    },
    {
      "inputs": [
        {
          "internalType": "address",
          "name": "account",
          "type": "address"
        }
      ],
      "name": "OwnableUnauthorizedAccount",
      "type": "error"
    },
    {
      "anonymous": false,
      "inputs": [
        {
          "indexed": true,
          "internalType": "address",
          "name": "owner",
          "type": "address"
        },
        {
          "indexed": true,
          "internalType": "address",
          "name": "approved",
          "type": "address"
        },
        {
          "indexed": true,
          "internalType": "uint256",
          "name": "tokenId",
          "type": "uint256"
        }
      ],
      "name": "Approval",
      "type": "event"
    },
    {
      "anonymous": false,
      "inputs": [
        {
          "indexed": true,
          "internalType": "address",
          "name": "owner",
          "type": "address"
        },
        {
          "indexed": true,
          "internalType": "address",
          "name": "operator",
          "type": "address"
        },
        {
          "indexed": false,
          "internalType": "bool",
          "name": "approved",
          "type": "bool"
        }
      ],
      "name": "ApprovalForAll",
      "type": "event"
    },
    {
      "anonymous": false,
      "inputs": [
        {
          "indexed": true,
          "internalType": "address",
          "name": "previousOwner",
          "type": "address"
        },
        {
          "indexed": true,
          "internalType": "address",
          "name": "newOwner",
          "type": "address"
        }
      ],
      "name": "OwnershipTransferred",
      "type": "event"
    },
    {
      "anonymous": false,
      "inputs": [
        {
          "indexed": true,
          "internalType": "address",
          "name": "from",
          "type": "address"
        },
        {
          "indexed": true,
          "internalType": "address",
          "name": "to",
          "type": "address"
        },
        {
          "indexed": true,
          "internalType": "uint256",
          "name": "tokenId",
          "type": "uint256"
        }
      ],
      "name": "Transfer",
      "type": "event"
    },
    {
      "inputs": [
        {
          "internalType": "address",
          "name": "to",
          "type": "address"
        },
        {
          "internalType": "uint256",
          "name": "tokenId",
          "type": "uint256"
        }
      ],
      "name": "approve",
      "outputs": [],
      "stateMutability": "nonpayable",
      "type": "function"
    },
    {
      "inputs": [
        {
          "internalType": "address",
          "name": "owner",
          "type": "address"
        }
      ],
      "name": "balanceOf",
      "outputs": [
        {
          "internalType": "uint256",
          "name": "",
          "type": "uint256"
        }
      ],
      "stateMutability": "view",
      "type": "function"
    },
    {
      "inputs": [
        {
          "internalType": "uint256",
          "name": "tokenId",
          "type": "uint256"
        }
      ],
      "name": "getApproved",
      "outputs": [
        {
          "internalType": "address",
          "name": "",
          "type": "address"
        }
      ],
      "stateMutability": "view",
      "type": "function"
    },
    {
      "inputs": [
        {
          "internalType": "address",
          "name": "owner",
          "type": "address"
        },
        {
          "internalType": "address",
          "name": "operator",
          "type": "address"
        }
      ],
      "name": "isApprovedForAll",
      "outputs": [
        {
          "internalType": "bool",
          "name": "",
          "type": "bool"
        }
      ],
      "stateMutability": "view",
      "type": "function"
    },
    {
      "inputs": [],
      "name": "mint",
      "outputs": [],
      "stateMutability": "nonpayable",
      "type": "function"
    },
    {
      "inputs": [],
      "name": "name",
      "outputs": [
        {
          "internalType": "string",
          "name": "",
          "type": "string"
        }
      ],
      "stateMutability": "view",
      "type": "function"
    },
    {
      "inputs": [],
      "name": "owner",
      "outputs": [
        {
          "internalType": "address",
          "name": "",
          "type": "address"
        }
      ],
      "stateMutability": "view",
      "type": "function"
    },
    {
      "inputs": [
        {
          "internalType": "uint256",
          "name": "tokenId",
          "type": "uint256"
        }
      ],
      "name": "ownerOf",
      "outputs": [
        {
          "internalType": "address",
          "name": "",
          "type": "address"
        }
      ],
      "stateMutability": "view",
      "type": "function"
    },
    {
      "inputs": [],
      "name": "renounceOwnership",
      "outputs": [],
      "stateMutability": "nonpayable",
      "type": "function"
    },
    {
      "inputs": [
        {
          "internalType": "address",
          "name": "from",
          "type": "address"
        },
        {
          "internalType": "address",
          "name": "to",
          "type": "address"
        },
        {
          "internalType": "uint256",
          "name": "tokenId",
          "type": "uint256"
        }
      ],
      "name": "safeTransferFrom",
      "outputs": [],
      "stateMutability": "nonpayable",
      "type": "function"
    },
    {
      "inputs": [
        {
          "internalType": "address",
          "name": "from",
          "type": "address"
        },
        {
          "internalType": "address",
          "name": "to",
          "type": "address"
        },
        {
          "internalType": "uint256",
          "name": "tokenId",
          "type": "uint256"
        },
        {
          "internalType": "bytes",
          "name": "data",
          "type": "bytes"
        }
      ],
      "name": "safeTransferFrom",
      "outputs": [],
      "stateMutability": "nonpayable",
      "type": "function"
    },
    {
      "inputs": [
        {
          "internalType": "address",
          "name": "operator",
          "type": "address"
        },
        {
          "internalType": "bool",
          "name": "approved",
          "type": "bool"
        }
      ],
      "name": "setApprovalForAll",
      "outputs": [],
      "stateMutability": "nonpayable",
      "type": "function"
    },
    {
      "inputs": [
        {
          "internalType": "bytes4",
          "name": "interfaceId",
          "type": "bytes4"
        }
      ],
      "name": "supportsInterface",
      "outputs": [
        {
          "internalType": "bool",
          "name": "",
          "type": "bool"
        }
      ],
      "stateMutability": "view",
      "type": "function"
    },
    {
      "inputs": [],
      "name": "symbol",
      "outputs": [
        {
          "internalType": "string",
          "name": "",
          "type": "string"
        }
      ],
      "stateMutability": "view",
      "type": "function"
    },
    {
      "inputs": [],
      "name": "tokenCounter",
      "outputs": [
        {
          "internalType": "uint256",
          "name": "",
          "type": "uint256"
        }
      ],
      "stateMutability": "view",
      "type": "function"
    },
    {
      "inputs": [
        {
          "internalType": "uint256",
          "name": "tokenId",
          "type": "uint256"
        }
      ],
      "name": "tokenURI",
      "outputs": [
        {
          "internalType": "string",
          "name": "",
          "type": "string"
        }
      ],
      "stateMutability": "view",
      "type": "function"
    },
    {
      "inputs": [
        {
          "internalType": "address",
          "name": "from",
          "type": "address"
        },
        {
          "internalType": "address",
          "name": "to",
          "type": "address"
        },
        {
          "internalType": "uint256",
          "name": "tokenId",
          "type": "uint256"
        }
      ],
      "name": "transferFrom",
      "outputs": [],
      "stateMutability": "nonpayable",
      "type": "function"
    },
    {
      "inputs": [
        {
          "internalType": "address",
          "name": "newOwner",
          "type": "address"
        }
      ],
      "name": "transferOwnership",
      "outputs": [],
      "stateMutability": "nonpayable",
      "type": "function"
    }
  ],
  "bytecode": "0x608060405260405180610b60016040528060008152602001601181526020016023815260200160348152602001604681526020016057815260200160698152602001607a8152602001608b8152602001609c815260200160ae815260200160bf815260200160d0815260200160e1815260200160f2815260200161010381526020016101148152602001610124815260200161013581526020016101468152602001610156815260200161016681526020016101778152602001610187815260200161019781526020016101a781526020016101b681526020016101c681526020016101d581526020016101e581526020016101f4815260200161020381526020016102128152602001610221815260200161022f815260200161023e815260200161024c815260200161025a8152602001610268815260200161027581526020016102838152602001610290815260200161029d81526020016102aa81526020016102b781526020016102c381526020016102cf81526020016102db81526020016102e781526020016102f381526020016102fe81526020016103098152602001610314815260200161031f81526020016103298152602001610333815260200161033d8152602001610347815260200161035081526020016103598152602001610362815260200161036b8152602001610373815260200161037b8152602001610383815260200161038a81526020016103928152602001610399815260200161039f81526020016103a681526020016103ac81526020016103b281526020016103b781526020016103bc81526020016103c181526020016103c681526020016103ca81526020016103ce81526020016103d281526020016103d681526020016103d981526020016103dc81526020016103de81526020016103e181526020016103e381526020016103e481526020016103e681526020016103e781526020016103e781526020016103e881526020016103e8815250600990605b6102e79291906104d9565b503480156102f457600080fd5b50336040518060400160405280600881526020017f436c6f636b4e46540000000000000000000000000000000000000000000000008152506040518060400160405280600581526020017f434c4f434b00000000000000000000000000000000000000000000000000000081525081600090816103719190610786565b5080600190816103819190610786565b505050600073ffffffffffffffffffffffffffffffffffffffff168173ffffffffffffffffffffffffffffffffffffffff16036103f65760006040517f1e4fbdf70000000000000000000000000000000000000000000000000000000081526004016103ed9190610899565b60405180910390fd5b6104058161041360201b60201c565b5060006007819055506108b4565b6000600660009054906101000a900473ffffffffffffffffffffffffffffffffffffffff16905081600660006101000a81548173ffffffffffffffffffffffffffffffffffffffff021916908373ffffffffffffffffffffffffffffffffffffffff1602179055508173ffffffffffffffffffffffffffffffffffffffff168173ffffffffffffffffffffffffffffffffffffffff167f8be0079c531659141344cd1fd0a4f28419497f9722a3daafe3b4186f6b6457e060405160405180910390a35050565b82605b8101928215610508579160200282015b828111156105075782518255916020019190600101906104ec565b5b5090506105159190610519565b5090565b5b8082111561053257600081600090555060010161051a565b5090565b600081519050919050565b7f4e487b7100000000000000000000000000000000000000000000000000000000600052604160045260246000fd5b7f4e487b7100000000000000000000000000000000000000000000000000000000600052602260045260246000fd5b600060028204905060018216806105b757607f821691505b6020821081036105ca576105c9610570565b5b50919050565b60008190508160005260206000209050919050565b60006020601f8301049050919050565b600082821b905092915050565b6000600883026106327fffffffffffffffffffffffffffffffffffffffffffffffffffffffffffffffff826105f5565b61063c86836105f5565b95508019841693508086168417925050509392505050565b6000819050919050565b6000819050919050565b600061068361067e61067984610654565b61065e565b610654565b9050919050565b6000819050919050565b61069d83610668565b6106b16106a98261068a565b848454610602565b825550505050565b600090565b6106c66106b9565b6106d1818484610694565b505050565b5b818110156106f5576106ea6000826106be565b6001810190506106d7565b5050565b601f82111561073a5761070b816105d0565b610714846105e5565b81016020851015610723578190505b61073761072f856105e5565b8301826106d6565b50505b505050565b600082821c905092915050565b600061075d6000198460080261073f565b1980831691505092915050565b6000610776838361074c565b9150826002028217905092915050565b61078f82610536565b67ffffffffffffffff8111156107a8576107a7610541565b5b6107b2825461059f565b6107bd8282856106f9565b600060209050601f8311600181146107f057600084156107de578287015190505b6107e8858261076a565b865550610850565b601f1984166107fe866105d0565b60005b8281101561082657848901518255600182019150602085019450602081019050610801565b86831015610843578489015161083f601f89168261074c565b8355505b6001600288020188555050505b505050505050565b600073ffffffffffffffffffffffffffffffffffffffff82169050919050565b600061088382610858565b9050919050565b61089381610878565b82525050565b60006020820190506108ae600083018461088a565b92915050565b6132d0806108c36000396000f3fe608060405234801561001057600080fd5b50600436106101165760003560e01c8063715018a6116100a2578063b88d4fde11610071578063b88d4fde146102b9578063c87b56dd146102d5578063d082e38114610305578063e985e9c514610323578063f2fde38b1461035357610116565b8063715018a6146102575780638da5cb5b1461026157806395d89b411461027f578063a22cb4651461029d57610116565b80631249c58b116100e95780631249c58b146101b557806323b872dd146101bf57806342842e0e146101db5780636352211e146101f757806370a082311461022757610116565b806301ffc9a71461011b57806306fdde031461014b578063081812fc14610169578063095ea7b314610199575b600080fd5b61013560048036038101906101309190611e2b565b61036f565b6040516101429190611e73565b60405180910390f35b610153610381565b6040516101609190611f1e565b60405180910390f35b610183600480360381019061017e9190611f76565b610413565b6040516101909190611fe4565b60405180910390f35b6101b360048036038101906101ae919061202b565b61042f565b005b6101bd610445565b005b6101d960048036038101906101d4919061206b565b610485565b005b6101f560048036038101906101f0919061206b565b610587565b005b610211600480360381019061020c9190611f76565b6105a7565b60405161021e9190611fe4565b60405180910390f35b610241600480360381019061023c91906120be565b6105b9565b60405161024e91906120fa565b60405180910390f35b61025f610673565b005b610269610687565b6040516102769190611fe4565b60405180910390f35b6102876106b1565b6040516102949190611f1e565b60405180910390f35b6102b760048036038101906102b29190612141565b610743565b005b6102d360048036038101906102ce91906122b6565b610759565b005b6102ef60048036038101906102ea9190611f76565b61077e565b6040516102fc9190611f1e565b60405180910390f35b61030d610894565b60405161031a91906120fa565b60405180910390f35b61033d60048036038101906103389190612339565b61089a565b60405161034a9190611e73565b60405180910390f35b61036d600480360381019061036891906120be565b61092e565b005b600061037a826109b4565b9050919050565b606060008054610390906123a8565b80601f01602080910402602001604051908101604052809291908181526020018280546103bc906123a8565b80156104095780601f106103de57610100808354040283529160200191610409565b820191906000526020600020905b8154815290600101906020018083116103ec57829003601f168201915b5050505050905090565b600061041e82610a96565b5061042882610b1e565b9050919050565b610441828261043c610b5b565b610b63565b5050565b61045133600754610b75565b42600860006007548152602001908152602001600020819055506007600081548092919061047e90612408565b9190505550565b600073ffffffffffffffffffffffffffffffffffffffff168273ffffffffffffffffffffffffffffffffffffffff16036104f75760006040517f64a0ae920000000000000000000000000000000000000000000000000000000081526004016104ee9190611fe4565b60405180910390fd5b600061050b8383610506610b5b565b610b93565b90508373ffffffffffffffffffffffffffffffffffffffff168173ffffffffffffffffffffffffffffffffffffffff1614610581578382826040517f64283d7b00000000000000000000000000000000000000000000000000000000815260040161057893929190612450565b60405180910390fd5b50505050565b6105a283838360405180602001604052806000815250610759565b505050565b60006105b282610a96565b9050919050565b60008073ffffffffffffffffffffffffffffffffffffffff168273ffffffffffffffffffffffffffffffffffffffff160361062c5760006040517f89c62b640000000000000000000000000000000000000000000000000000000081526004016106239190611fe4565b60405180910390fd5b600360008373ffffffffffffffffffffffffffffffffffffffff1673ffffffffffffffffffffffffffffffffffffffff168152602001908152602001600020549050919050565b61067b610dad565b6106856000610e34565b565b6000600660009054906101000a900473ffffffffffffffffffffffffffffffffffffffff16905090565b6060600180546106c0906123a8565b80601f01602080910402602001604051908101604052809291908181526020018280546106ec906123a8565b80156107395780601f1061070e57610100808354040283529160200191610739565b820191906000526020600020905b81548152906001019060200180831161071c57829003601f168201915b5050505050905090565b61075561074e610b5b565b8383610efa565b5050565b610764848484610485565b61077861076f610b5b565b85858585611069565b50505050565b6060600073ffffffffffffffffffffffffffffffffffffffff166107a18361121a565b73ffffffffffffffffffffffffffffffffffffffff16036107f7576040517f08c379a00000000000000000000000000000000000000000000000000000000081526004016107ee906124d3565b60405180910390fd5b600060086000848152602001908152602001600020549050600061081a82611257565b90506000610827826113ac565b9050600061083486611543565b8261083e86611543565b60405160200161085093929190612899565b604051602081830303815290604052905061086a816113ac565b60405160200161087a9190612984565b604051602081830303815290604052945050505050919050565b60075481565b6000600560008473ffffffffffffffffffffffffffffffffffffffff1673ffffffffffffffffffffffffffffffffffffffff16815260200190815260200160002060008373ffffffffffffffffffffffffffffffffffffffff1673ffffffffffffffffffffffffffffffffffffffff16815260200190815260200160002060009054906101000a900460ff16905092915050565b610936610dad565b600073ffffffffffffffffffffffffffffffffffffffff168173ffffffffffffffffffffffffffffffffffffffff16036109a85760006040517f1e4fbdf700000000000000000000000000000000000000000000000000000000815260040161099f9190611fe4565b60405180910390fd5b6109b181610e34565b50565b60007f80ac58cd000000000000000000000000000000000000000000000000000000007bffffffffffffffffffffffffffffffffffffffffffffffffffffffff1916827bffffffffffffffffffffffffffffffffffffffffffffffffffffffff19161480610a7f57507f5b5e139f000000000000000000000000000000000000000000000000000000007bffffffffffffffffffffffffffffffffffffffffffffffffffffffff1916827bffffffffffffffffffffffffffffffffffffffffffffffffffffffff1916145b80610a8f5750610a8e82611611565b5b9050919050565b600080610aa28361121a565b9050600073ffffffffffffffffffffffffffffffffffffffff168173ffffffffffffffffffffffffffffffffffffffff1603610b1557826040517f7e273289000000000000000000000000000000000000000000000000000000008152600401610b0c91906120fa565b60405180910390fd5b80915050919050565b60006004600083815260200190815260200160002060009054906101000a900473ffffffffffffffffffffffffffffffffffffffff169050919050565b600033905090565b610b70838383600161167b565b505050565b610b8f828260405180602001604052806000815250611840565b5050565b600080610b9f8461121a565b9050600073ffffffffffffffffffffffffffffffffffffffff168373ffffffffffffffffffffffffffffffffffffffff1614610be157610be0818486611864565b5b600073ffffffffffffffffffffffffffffffffffffffff168173ffffffffffffffffffffffffffffffffffffffff1614610c7257610c2360008560008061167b565b6001600360008373ffffffffffffffffffffffffffffffffffffffff1673ffffffffffffffffffffffffffffffffffffffff168152602001908152602001600020600082825403925050819055505b600073ffffffffffffffffffffffffffffffffffffffff168573ffffffffffffffffffffffffffffffffffffffff1614610cf5576001600360008773ffffffffffffffffffffffffffffffffffffffff1673ffffffffffffffffffffffffffffffffffffffff168152602001908152602001600020600082825401925050819055505b846002600086815260200190815260200160002060006101000a81548173ffffffffffffffffffffffffffffffffffffffff021916908373ffffffffffffffffffffffffffffffffffffffff160217905550838573ffffffffffffffffffffffffffffffffffffffff168273ffffffffffffffffffffffffffffffffffffffff167fddf252ad1be2c89b69c2b068fc378daa952ba7f163c4a11628f55a4df523b3ef60405160405180910390a4809150509392505050565b610db5610b5b565b73ffffffffffffffffffffffffffffffffffffffff16610dd3610687565b73ffffffffffffffffffffffffffffffffffffffff1614610e3257610df6610b5b565b6040517f118cdaa7000000000000000000000000000000000000000000000000000000008152600401610e299190611fe4565b60405180910390fd5b565b6000600660009054906101000a900473ffffffffffffffffffffffffffffffffffffffff16905081600660006101000a81548173ffffffffffffffffffffffffffffffffffffffff021916908373ffffffffffffffffffffffffffffffffffffffff1602179055508173ffffffffffffffffffffffffffffffffffffffff168173ffffffffffffffffffffffffffffffffffffffff167f8be0079c531659141344cd1fd0a4f28419497f9722a3daafe3b4186f6b6457e060405160405180910390a35050565b600073ffffffffffffffffffffffffffffffffffffffff168273ffffffffffffffffffffffffffffffffffffffff1603610f6b57816040517f5b08ba18000000000000000000000000000000000000000000000000000000008152600401610f629190611fe4565b60405180910390fd5b80600560008573ffffffffffffffffffffffffffffffffffffffff1673ffffffffffffffffffffffffffffffffffffffff16815260200190815260200160002060008473ffffffffffffffffffffffffffffffffffffffff1673ffffffffffffffffffffffffffffffffffffffff16815260200190815260200160002060006101000a81548160ff0219169083151502179055508173ffffffffffffffffffffffffffffffffffffffff168373ffffffffffffffffffffffffffffffffffffffff167f17307eab39ab6107e8899845ad3d59bd9653f200f220920489ca2b5937696c318360405161105c9190611e73565b60405180910390a3505050565b60008373ffffffffffffffffffffffffffffffffffffffff163b1115611213578273ffffffffffffffffffffffffffffffffffffffff1663150b7a02868685856040518563ffffffff1660e01b81526004016110c894939291906129fb565b6020604051808303816000875af192505050801561110457506040513d601f19601f820116820180604052508101906111019190612a5c565b60015b611188573d8060008114611134576040519150601f19603f3d011682016040523d82523d6000602084013e611139565b606091505b50600081510361118057836040517f64a0ae920000000000000000000000000000000000000000000000000000000081526004016111779190611fe4565b60405180910390fd5b805160208201fd5b63150b7a0260e01b7bffffffffffffffffffffffffffffffffffffffffffffffffffffffff1916817bffffffffffffffffffffffffffffffffffffffffffffffffffffffff19161461121157836040517f64a0ae920000000000000000000000000000000000000000000000000000000081526004016112089190611fe4565b60405180910390fd5b505b5050505050565b60006002600083815260200190815260200160002060009054906101000a900473ffffffffffffffffffffffffffffffffffffffff169050919050565b606060006018610e108461126b9190612ab8565b6112759190612ae9565b90506000603c80856112879190612ab8565b6112919190612ae9565b90506000603c856112a29190612ae9565b905060006112af84611928565b6112b884611928565b6112c184611928565b6040516020016112d393929190612b66565b604051602081830303815290604052905060008060006112f289611973565b925092509250600061130382611928565b61130c84611928565b61131586611543565b60405160200161132793929190612bf9565b60405160208183030381529060405290506000611342611a6f565b9050600061134e611a92565b905060008784604051602001611365929190612e08565b604051602081830303815290604052905082818360405160200161138b93929190612ef0565b6040516020818303038152906040529b505050505050505050505050919050565b6060600082519050600081036113d4576040518060200160405280600081525091505061153e565b600060036002836113e59190612f37565b6113ef9190612ab8565b60046113fb9190612f6b565b9050600060208261140c9190612f37565b67ffffffffffffffff8111156114255761142461218b565b5b6040519080825280601f01601f1916602001820160405280156114575781602001600182028036833780820191505090505b50905060006040518060600160405280604081526020016131d1604091399050600181016020830160005b868110156114fb5760038101905062ffffff818a015116603f8160121c168401518060081b905060ff603f83600c1c1686015116810190508060081b905060ff603f8360061c1686015116810190508060081b905060ff603f831686015116810190508060e01b90508084526004840193505050611482565b506003860660018114611515576002811461152557611530565b613d3d60f01b6002830352611530565b603d60f81b60018303525b508484525050819450505050505b919050565b60606000600161155284611ab2565b01905060008167ffffffffffffffff8111156115715761157061218b565b5b6040519080825280601f01601f1916602001820160405280156115a35781602001600182028036833780820191505090505b509050600082602083010190505b600115611606578080600190039150507f3031323334353637383961626364656600000000000000000000000000000000600a86061a8153600a85816115fa576115f9612a89565b5b049450600085036115b1575b819350505050919050565b60007f01ffc9a7000000000000000000000000000000000000000000000000000000007bffffffffffffffffffffffffffffffffffffffffffffffffffffffff1916827bffffffffffffffffffffffffffffffffffffffffffffffffffffffff1916149050919050565b80806116b45750600073ffffffffffffffffffffffffffffffffffffffff168273ffffffffffffffffffffffffffffffffffffffff1614155b156117e85760006116c484610a96565b9050600073ffffffffffffffffffffffffffffffffffffffff168373ffffffffffffffffffffffffffffffffffffffff161415801561172f57508273ffffffffffffffffffffffffffffffffffffffff168173ffffffffffffffffffffffffffffffffffffffff1614155b80156117425750611740818461089a565b155b1561178457826040517fa9fbf51f00000000000000000000000000000000000000000000000000000000815260040161177b9190611fe4565b60405180910390fd5b81156117e657838573ffffffffffffffffffffffffffffffffffffffff168273ffffffffffffffffffffffffffffffffffffffff167f8c5be1e5ebec7d5bd14f71427d1e84f3dd0314c0f7b2291e5b200ac8c7c3b92560405160405180910390a45b505b836004600085815260200190815260200160002060006101000a81548173ffffffffffffffffffffffffffffffffffffffff021916908373ffffffffffffffffffffffffffffffffffffffff16021790555050505050565b61184a8383611c05565b61185f611855610b5b565b6000858585611069565b505050565b61186f838383611cfe565b61192357600073ffffffffffffffffffffffffffffffffffffffff168373ffffffffffffffffffffffffffffffffffffffff16036118e457806040517f7e2732890000000000000000000000000000000000000000000000000000000081526004016118db91906120fa565b60405180910390fd5b81816040517f177e802f00000000000000000000000000000000000000000000000000000000815260040161191a929190612fad565b60405180910390fd5b505050565b6060600a8210156119625761193c82611543565b60405160200161194c9190613022565b604051602081830303815290604052905061196e565b61196b82611543565b90505b919050565b60008060008062015180856119889190612ab8565b9050618ead60648261199a9190612f6b565b6119a49190612ab8565b6107b26119b19190612f37565b9350600061016d6107b2866119c69190613044565b6119d09190612f6b565b60046107b1876119e09190613044565b6119ea9190612ab8565b6119f49190612f37565b905060008183611a049190613044565b90506001601e61016d83611a189190612ae9565b611a229190612ab8565b611a2c9190612f37565b9450600c851115611a3c57600c94505b6001601e82611a4b9190612ae9565b611a559190612f37565b9350601f841115611a6557601f93505b5050509193909250565b606060405180610180016040528061015881526020016130796101589139905090565b60606040518060c00160405280608a8152602001613211608a9139905090565b600080600090507a184f03e93ff9f4daa797ed6e38ed64bf6a1f0100000000000000008310611b10577a184f03e93ff9f4daa797ed6e38ed64bf6a1f0100000000000000008381611b0657611b05612a89565b5b0492506040810190505b6d04ee2d6d415b85acef81000000008310611b4d576d04ee2d6d415b85acef81000000008381611b4357611b42612a89565b5b0492506020810190505b662386f26fc100008310611b7c57662386f26fc100008381611b7257611b71612a89565b5b0492506010810190505b6305f5e1008310611ba5576305f5e1008381611b9b57611b9a612a89565b5b0492506008810190505b6127108310611bca576127108381611bc057611bbf612a89565b5b0492506004810190505b60648310611bed5760648381611be357611be2612a89565b5b0492506002810190505b600a8310611bfc576001810190505b80915050919050565b600073ffffffffffffffffffffffffffffffffffffffff168273ffffffffffffffffffffffffffffffffffffffff1603611c775760006040517f64a0ae92000000000000000000000000000000000000000000000000000000008152600401611c6e9190611fe4565b60405180910390fd5b6000611c8583836000610b93565b9050600073ffffffffffffffffffffffffffffffffffffffff168173ffffffffffffffffffffffffffffffffffffffff1614611cf95760006040517f73c6ac6e000000000000000000000000000000000000000000000000000000008152600401611cf09190611fe4565b60405180910390fd5b505050565b60008073ffffffffffffffffffffffffffffffffffffffff168373ffffffffffffffffffffffffffffffffffffffff1614158015611db657508273ffffffffffffffffffffffffffffffffffffffff168473ffffffffffffffffffffffffffffffffffffffff161480611d775750611d76848461089a565b5b80611db557508273ffffffffffffffffffffffffffffffffffffffff16611d9d83610b1e565b73ffffffffffffffffffffffffffffffffffffffff16145b5b90509392505050565b6000604051905090565b600080fd5b600080fd5b60007fffffffff0000000000000000000000000000000000000000000000000000000082169050919050565b611e0881611dd3565b8114611e1357600080fd5b50565b600081359050611e2581611dff565b92915050565b600060208284031215611e4157611e40611dc9565b5b6000611e4f84828501611e16565b91505092915050565b60008115159050919050565b611e6d81611e58565b82525050565b6000602082019050611e886000830184611e64565b92915050565b600081519050919050565b600082825260208201905092915050565b60005b83811015611ec8578082015181840152602081019050611ead565b60008484015250505050565b6000601f19601f8301169050919050565b6000611ef082611e8e565b611efa8185611e99565b9350611f0a818560208601611eaa565b611f1381611ed4565b840191505092915050565b60006020820190508181036000830152611f388184611ee5565b905092915050565b6000819050919050565b611f5381611f40565b8114611f5e57600080fd5b50565b600081359050611f7081611f4a565b92915050565b600060208284031215611f8c57611f8b611dc9565b5b6000611f9a84828501611f61565b91505092915050565b600073ffffffffffffffffffffffffffffffffffffffff82169050919050565b6000611fce82611fa3565b9050919050565b611fde81611fc3565b82525050565b6000602082019050611ff96000830184611fd5565b92915050565b61200881611fc3565b811461201357600080fd5b50565b60008135905061202581611fff565b92915050565b6000806040838503121561204257612041611dc9565b5b600061205085828601612016565b925050602061206185828601611f61565b9150509250929050565b60008060006060848603121561208457612083611dc9565b5b600061209286828701612016565b93505060206120a386828701612016565b92505060406120b486828701611f61565b9150509250925092565b6000602082840312156120d4576120d3611dc9565b5b60006120e284828501612016565b91505092915050565b6120f481611f40565b82525050565b600060208201905061210f60008301846120eb565b92915050565b61211e81611e58565b811461212957600080fd5b50565b60008135905061213b81612115565b92915050565b6000806040838503121561215857612157611dc9565b5b600061216685828601612016565b92505060206121778582860161212c565b9150509250929050565b600080fd5b600080fd5b7f4e487b7100000000000000000000000000000000000000000000000000000000600052604160045260246000fd5b6121c382611ed4565b810181811067ffffffffffffffff821117156121e2576121e161218b565b5b80604052505050565b60006121f5611dbf565b905061220182826121ba565b919050565b600067ffffffffffffffff8211156122215761222061218b565b5b61222a82611ed4565b9050602081019050919050565b82818337600083830152505050565b600061225961225484612206565b6121eb565b90508281526020810184848401111561227557612274612186565b5b612280848285612237565b509392505050565b600082601f83011261229d5761229c612181565b5b81356122ad848260208601612246565b91505092915050565b600080600080608085870312156122d0576122cf611dc9565b5b60006122de87828801612016565b94505060206122ef87828801612016565b935050604061230087828801611f61565b925050606085013567ffffffffffffffff81111561232157612320611dce565b5b61232d87828801612288565b91505092959194509250565b600080604083850312156123505761234f611dc9565b5b600061235e85828601612016565b925050602061236f85828601612016565b9150509250929050565b7f4e487b7100000000000000000000000000000000000000000000000000000000600052602260045260246000fd5b600060028204905060018216806123c057607f821691505b6020821081036123d3576123d2612379565b5b50919050565b7f4e487b7100000000000000000000000000000000000000000000000000000000600052601160045260246000fd5b600061241382611f40565b91507fffffffffffffffffffffffffffffffffffffffffffffffffffffffffffffffff8203612445576124446123d9565b5b600182019050919050565b60006060820190506124656000830186611fd5565b61247260208301856120eb565b61247f6040830184611fd5565b949350505050565b7f546f6b656e20646f6573206e6f74206578697374000000000000000000000000600082015250565b60006124bd601483611e99565b91506124c882612487565b602082019050919050565b600060208201905081810360008301526124ec816124b0565b9050919050565b600081905092915050565b7f7b226e616d65223a22436c6f636b202300000000000000000000000000000000600082015250565b60006125346010836124f3565b915061253f826124fe565b601082019050919050565b600061255582611e8e565b61255f81856124f3565b935061256f818560208601611eaa565b80840191505092915050565b7f222c000000000000000000000000000000000000000000000000000000000000600082015250565b60006125b16002836124f3565b91506125bc8261257b565b600282019050919050565b7f226465736372697074696f6e223a224f6e2d636861696e2053564720636c6f6360008201527f6b204e46542073686f77696e67207468652074696d65207768656e206974207760208201527f6173206d696e7465642e222c0000000000000000000000000000000000000000604082015250565b6000612649604c836124f3565b9150612654826125c7565b604c82019050919050565b7f22696d6167655f64617461223a22646174613a696d6167652f7376672b786d6c60008201527f3b6261736536342c000000000000000000000000000000000000000000000000602082015250565b60006126bb6028836124f3565b91506126c68261265f565b602882019050919050565b7f2265787465726e616c5f75726c223a2268747470733a2f2f796f75722d77656260008201527f736974652e636f6d2f636c6f636b6e66742f222c000000000000000000000000602082015250565b600061272d6034836124f3565b9150612738826126d1565b603482019050919050565b7f2261747472696275746573223a5b000000000000000000000000000000000000600082015250565b6000612779600e836124f3565b915061278482612743565b600e82019050919050565b7f7b2274726169745f74797065223a224d696e746564204174222c22646973706c60008201527f61795f74797065223a2264617465222c2276616c7565223a0000000000000000602082015250565b60006127eb6038836124f3565b91506127f68261278f565b603882019050919050565b7f7d00000000000000000000000000000000000000000000000000000000000000600082015250565b60006128376001836124f3565b915061284282612801565b600182019050919050565b7f5d7d000000000000000000000000000000000000000000000000000000000000600082015250565b60006128836002836124f3565b915061288e8261284d565b600282019050919050565b60006128a482612527565b91506128b0828661254a565b91506128bb826125a4565b91506128c68261263c565b91506128d1826126ae565b91506128dd828561254a565b91506128e8826125a4565b91506128f382612720565b91506128fe8261276c565b9150612909826127de565b9150612915828461254a565b91506129208261282a565b915061292b82612876565b9150819050949350505050565b7f646174613a6170706c69636174696f6e2f6a736f6e3b6261736536342c000000600082015250565b600061296e601d836124f3565b915061297982612938565b601d82019050919050565b600061298f82612961565b915061299b828461254a565b915081905092915050565b600081519050919050565b600082825260208201905092915050565b60006129cd826129a6565b6129d781856129b1565b93506129e7818560208601611eaa565b6129f081611ed4565b840191505092915050565b6000608082019050612a106000830187611fd5565b612a1d6020830186611fd5565b612a2a60408301856120eb565b8181036060830152612a3c81846129c2565b905095945050505050565b600081519050612a5681611dff565b92915050565b600060208284031215612a7257612a71611dc9565b5b6000612a8084828501612a47565b91505092915050565b7f4e487b7100000000000000000000000000000000000000000000000000000000600052601260045260246000fd5b6000612ac382611f40565b9150612ace83611f40565b925082612ade57612add612a89565b5b828204905092915050565b6000612af482611f40565b9150612aff83611f40565b925082612b0f57612b0e612a89565b5b828206905092915050565b7f3a00000000000000000000000000000000000000000000000000000000000000600082015250565b6000612b506001836124f3565b9150612b5b82612b1a565b600182019050919050565b6000612b72828661254a565b9150612b7d82612b43565b9150612b89828561254a565b9150612b9482612b43565b9150612ba0828461254a565b9150819050949350505050565b7f2f00000000000000000000000000000000000000000000000000000000000000600082015250565b6000612be36001836124f3565b9150612bee82612bad565b600182019050919050565b6000612c05828661254a565b9150612c1082612bd6565b9150612c1c828561254a565b9150612c2782612bd6565b9150612c33828461254a565b9150819050949350505050565b7f3c7465787420783d223530302220793d223530302220666f6e742d66616d696c60008201527f793d22417269616c2c206d6f6e6f73706163652220666f6e742d73697a653d2260208201527f313030222066696c6c3d22233465396633642220746578742d616e63686f723d60408201527f226d6964646c652220666f6e742d7765696768743d22626f6c64223e00000000606082015250565b6000612ce8607c836124f3565b9150612cf382612c40565b607c82019050919050565b7f3c2f746578743e00000000000000000000000000000000000000000000000000600082015250565b6000612d346007836124f3565b9150612d3f82612cfe565b600782019050919050565b7f0a20203c7465787420783d223530302220793d223635302220666f6e742d666160008201527f6d696c793d22417269616c2c2073616e732d73657269662220666f6e742d736960208201527f7a653d223336222066696c6c3d22236539343536302220746578742d616e636860408201527f6f723d226d6964646c65223e0000000000000000000000000000000000000000606082015250565b6000612df2606c836124f3565b9150612dfd82612d4a565b606c82019050919050565b6000612e1382612cdb565b9150612e1f828561254a565b9150612e2a82612d27565b9150612e3582612de5565b9150612e41828461254a565b9150612e4c82612d27565b91508190509392505050565b7f2020000000000000000000000000000000000000000000000000000000000000600082015250565b6000612e8e6002836124f3565b9150612e9982612e58565b600282019050919050565b7f0a00000000000000000000000000000000000000000000000000000000000000600082015250565b6000612eda6001836124f3565b9150612ee582612ea4565b600182019050919050565b6000612efc828661254a565b9150612f0782612e81565b9150612f13828561254a565b9150612f1e82612ecd565b9150612f2a828461254a565b9150819050949350505050565b6000612f4282611f40565b9150612f4d83611f40565b9250828201905080821115612f6557612f646123d9565b5b92915050565b6000612f7682611f40565b9150612f8183611f40565b9250828202612f8f81611f40565b91508282048414831517612fa657612fa56123d9565b5b5092915050565b6000604082019050612fc26000830185611fd5565b612fcf60208301846120eb565b9392505050565b7f3000000000000000000000000000000000000000000000000000000000000000600082015250565b600061300c6001836124f3565b915061301782612fd6565b600182019050919050565b600061302d82612fff565b9150613039828461254a565b915081905092915050565b600061304f82611f40565b915061305a83611f40565b9250828203905081811115613072576130716123d9565b5b9291505056fe3c3f786d6c2076657273696f6e3d22312e302220656e636f64696e673d225554462d3822207374616e64616c6f6e653d226e6f223f3e0a3c7376672077696474683d223130303022206865696768743d2231303030222076696577426f783d22302030203130303020313030302220786d6c6e733d22687474703a2f2f7777772e77332e6f72672f323030302f737667222073686170652d72656e646572696e673d2267656f6d6574726963507265636973696f6e223e0a20203c726563742077696474683d223130302522206865696768743d2231303025222066696c6c3d2223316131613265222f3e0a20203c7265637420783d223130302220793d22343030222077696474683d2238303022206865696768743d22323030222072783d223330222066696c6c3d222330663334363022207374726f6b653d222334653966336422207374726f6b652d77696474683d2235222f3e0a4142434445464748494a4b4c4d4e4f505152535455565758595a6162636465666768696a6b6c6d6e6f707172737475767778797a303132333435363738392b2f20203c7465787420783d223530302220793d223535302220666f6e742d66616d696c793d22417269616c2c2073616e732d73657269662220666f6e742d73697a653d223234222066696c6c3d22236539343536302220746578742d616e63686f723d226d6964646c65223e4d696e7465642054696d652028555443293c2f746578743e0a3c2f7376673ea2646970667358221220af68f64f93e6a6d6f021fbcceb7a9ab285850517af9f7538db20e02322347c3864736f6c634300081c0033",
  "linkReferences": {},
  "deployedLinkReferences": {}
}