{
  "_format": "hh-sol-artifact-1",
  "contractName": "Lottery",
  "sourceName": "contracts/Lottery.sol",
  "abi": [
    {
      "anonymous": false,
      "inputs": [
        {
          "indexed": false,
          "internalType": "uint256",
          "name": "newRound",
          "type": "uint256"
        }
      ],
      "name": "LotteryReset",
      "type": "event"
    },
    {
      "anonymous": false,
      "inputs": [
        {
          "indexed": true,
          "internalType": "address",
          "name": "player",
          "type": "address"
        },
        {
          "indexed": false,
          "internalType": "uint256",
          "name": "round",
          "type": "uint256"
        },
        {
          "indexed": false,
          "internalType": "uint256",
          "name": "playerCount",
          "type": "uint256"
        }
      ],
      "name": "PlayerEntered",
      "type": "event"
    },
    {
      "anonymous": false,
      "inputs": [
        {
          "indexed": true,
          "internalType": "address",
          "name": "winner",
          "type": "address"
        },
        {
          "indexed": false,
          "internalType": "uint256",
          "name": "round",
          "type": "uint256"
        },
        {
          "indexed": false,
          "internalType": "uint256",
          "name": "prizeAmount",
          "type": "uint256"
        }
      ],
      "name": "WinnerSelected",
      "type": "event"
    },
    {
      "inputs": [],
      "name": "ENTRY_FEE",
      "outputs": [
        {
          "internalType": "uint256",
          "name": "",
          "type": "uint256"
        }
      ],
      "stateMutability": "view",
      "type": "function"
    },
    {
      "inputs": [],
      "name": "MAX_PLAYERS",
      "outputs": [
        {
          "internalType": "uint256",
          "name": "",
          "type": "uint256"
        }
      ],
      "stateMutability": "view",
      "type": "function"
    },
    {
      "inputs": [],
      "name": "enterLottery",
      "outputs": [],
      "stateMutability": "payable",
      "type": "function"
    },
    {
      "inputs": [],
      "name": "getLotteryInfo",
      "outputs": [
        {
          "internalType": "uint256",
          "name": "currentRound",
          "type": "uint256"
        },
        {
          "internalType": "uint256",
          "name": "playerCount",
          "type": "uint256"
        },
        {
          "internalType": "uint256",
          "name": "prizePool",
          "type": "uint256"
        },
        {
          "internalType": "address",
          "name": "winner",
          "type": "address"
        },
        {
          "internalType": "bool",
          "name": "isActive",
          "type": "bool"
        }
      ],
      "stateMutability": "view",
      "type": "function"
    },
    {
      "inputs": [],
      "name": "getPlayerCount",
      "outputs": [
        {
          "internalType": "uint256",
          "name": "",
          "type": "uint256"
        }
      ],
      "stateMutability": "view",
      "type": "function"
    },
    {
      "inputs": [],
      "name": "getPlayers",
      "outputs": [
        {
          "internalType": "address[]",
          "name": "",
          "type": "address[]"
        }
      ],
      "stateMutability": "view",
      "type": "function"
    },
    {
      "inputs": [
        {
          "internalType": "address",
          "name": "",
          "type": "address"
        }
      ],
      "name": "hasEntered",
      "outputs": [
        {
          "internalType": "bool",
          "name": "",
          "type": "bool"
        }
      ],
      "stateMutability": "view",
      "type": "function"
    },
    {
      "inputs": [
        {
          "internalType": "address",
          "name": "player",
          "type": "address"
        }
      ],
      "name": "hasPlayerEntered",
      "outputs": [
        {
          "internalType": "bool",
          "name": "",
          "type": "bool"
        }
      ],
      "stateMutability": "view",
      "type": "function"
    },
    {
      "inputs": [],
      "name": "lastWinner",
      "outputs": [
        {
          "internalType": "address",
          "name": "",
          "type": "address"
        }
      ],
      "stateMutability": "view",
      "type": "function"
    },
    {
      "inputs": [],
      "name": "lotteryRound",
      "outputs": [
        {
          "internalType": "uint256",
          "name": "",
          "type": "uint256"
        }
      ],
      "stateMutability": "view",
      "type": "function"
    },
    {
      "inputs": [
        {
          "internalType": "uint256",
          "name": "",
          "type": "uint256"
        }
      ],
      "name": "players",
      "outputs": [
        {
          "internalType": "address",
          "name": "",
          "type": "address"
        }
      ],
      "stateMutability": "view",
      "type": "function"
    },
    {
      "inputs": [],
      "name": "totalPrizePool",
      "outputs": [
        {
          "internalType": "uint256",
          "name": "",
          "type": "uint256"
        }
      ],
      "stateMutability": "view",
      "type": "function"
    }
  ],
  "bytecode": "0x608060405234801561001057600080fd5b5061131d806100206000396000f3fe6080604052600436106100a75760003560e01c8063c1af578511610064578063c1af5785146101d6578063c2e52206146101e0578063c51964261461020b578063f6d361cc14610236578063f71d96cb14610261578063fe1881841461029e576100a7565b8063101c5ce9146100ac57806324d70dea146100db578063398ab9a7146101185780634411b3eb14610143578063680719bb1461016e5780638b5b9ccc146101ab575b600080fd5b3480156100b857600080fd5b506100c16102c9565b6040516100d2959493929190610b01565b60405180910390f35b3480156100e757600080fd5b5061010260048036038101906100fd9190610b85565b61031a565b60405161010f9190610bb2565b60405180910390f35b34801561012457600080fd5b5061012d61033a565b60405161013a9190610bcd565b60405180910390f35b34801561014f57600080fd5b50610158610340565b6040516101659190610bcd565b60405180910390f35b34801561017a57600080fd5b5061019560048036038101906101909190610b85565b610345565b6040516101a29190610bb2565b60405180910390f35b3480156101b757600080fd5b506101c061039b565b6040516101cd9190610ca6565b60405180910390f35b6101de610429565b005b3480156101ec57600080fd5b506101f5610689565b6040516102029190610bcd565b60405180910390f35b34801561021757600080fd5b50610220610695565b60405161022d9190610bcd565b60405180910390f35b34801561024257600080fd5b5061024b61069b565b6040516102589190610bcd565b60405180910390f35b34801561026d57600080fd5b5061028860048036038101906102839190610cf4565b6106a6565b6040516102959190610d21565b60405180910390f35b3480156102aa57600080fd5b506102b36106e5565b6040516102c09190610d21565b60405180910390f35b6000806000806000600254600080549050600454600360009054906101000a900473ffffffffffffffffffffffffffffffffffffffff16600a60008054905010945094509450945094509091929394565b60016020528060005260406000206000915054906101000a900460ff1681565b60045481565b600a81565b6000600160008373ffffffffffffffffffffffffffffffffffffffff1673ffffffffffffffffffffffffffffffffffffffff16815260200190815260200160002060009054906101000a900460ff169050919050565b6060600080548060200260200160405190810160405280929190818152602001828054801561041f57602002820191906000526020600020905b8160009054906101000a900473ffffffffffffffffffffffffffffffffffffffff1673ffffffffffffffffffffffffffffffffffffffff16815260200190600101908083116103d5575b5050505050905090565b662386f26fc100003414610472576040517f08c379a000000000000000000000000000000000000000000000000000000000815260040161046990610dbf565b60405180910390fd5b600160003373ffffffffffffffffffffffffffffffffffffffff1673ffffffffffffffffffffffffffffffffffffffff16815260200190815260200160002060009054906101000a900460ff16156104ff576040517f08c379a00000000000000000000000000000000000000000000000000000000081526004016104f690610e51565b60405180910390fd5b600a60008054905010610547576040517f08c379a000000000000000000000000000000000000000000000000000000000815260040161053e90610ebd565b60405180910390fd5b6000339080600181540180825580915050600190039060005260206000200160009091909190916101000a81548173ffffffffffffffffffffffffffffffffffffffff021916908373ffffffffffffffffffffffffffffffffffffffff16021790555060018060003373ffffffffffffffffffffffffffffffffffffffff1673ffffffffffffffffffffffffffffffffffffffff16815260200190815260200160002060006101000a81548160ff02191690831515021790555034600460008282546106139190610f0c565b925050819055503373ffffffffffffffffffffffffffffffffffffffff167f480a6daea81f2af589e1959da1f1719512392ec551e8966266ee820f1c1f72ea600254600080549050604051610669929190610f40565b60405180910390a2600a600080549050036106875761068661070b565b5b565b60008080549050905090565b60025481565b662386f26fc1000081565b600081815481106106b657600080fd5b906000526020600020016000915054906101000a900473ffffffffffffffffffffffffffffffffffffffff1681565b600360009054906101000a900473ffffffffffffffffffffffffffffffffffffffff1681565b600a60008054905014610753576040517f08c379a000000000000000000000000000000000000000000000000000000000815260040161074a90610fb5565b60405180910390fd5b6000808054905042444360006040516020016107729493929190611114565b6040516020818303038152906040528051906020012060001c610795919061118d565b905060008082815481106107ac576107ab6111be565b5b9060005260206000200160009054906101000a900473ffffffffffffffffffffffffffffffffffffffff1690506000600454905081600360006101000a81548173ffffffffffffffffffffffffffffffffffffffff021916908373ffffffffffffffffffffffffffffffffffffffff1602179055508173ffffffffffffffffffffffffffffffffffffffff167f866efae43947560fe9d0de9013bc323d5718730d5c1543261b48a7bcb0717b936002548360405161086b929190610f40565b60405180910390a260008273ffffffffffffffffffffffffffffffffffffffff16826040516108999061121e565b60006040518083038185875af1925050503d80600081146108d6576040519150601f19603f3d011682016040523d82523d6000602084013e6108db565b606091505b505090508061091f576040517f08c379a00000000000000000000000000000000000000000000000000000000081526004016109169061127f565b60405180910390fd5b61092761092d565b50505050565b60005b6000805490508110156109e557600060016000808481548110610956576109556111be565b5b9060005260206000200160009054906101000a900473ffffffffffffffffffffffffffffffffffffffff1673ffffffffffffffffffffffffffffffffffffffff1673ffffffffffffffffffffffffffffffffffffffff16815260200190815260200160002060006101000a81548160ff02191690831515021790555080806109dd9061129f565b915050610930565b506000806109f39190610a4e565b600060048190555060026000815480929190610a0e9061129f565b91905055507f6564d21026f38ac4bc4ef082b01864f3ae6869e139a373fdf664a27a6c6dbebb600254604051610a449190610bcd565b60405180910390a1565b5080546000825590600052602060002090810190610a6c9190610a6f565b50565b5b80821115610a88576000816000905550600101610a70565b5090565b6000819050919050565b610a9f81610a8c565b82525050565b600073ffffffffffffffffffffffffffffffffffffffff82169050919050565b6000610ad082610aa5565b9050919050565b610ae081610ac5565b82525050565b60008115159050919050565b610afb81610ae6565b82525050565b600060a082019050610b166000830188610a96565b610b236020830187610a96565b610b306040830186610a96565b610b3d6060830185610ad7565b610b4a6080830184610af2565b9695505050505050565b600080fd5b610b6281610ac5565b8114610b6d57600080fd5b50565b600081359050610b7f81610b59565b92915050565b600060208284031215610b9b57610b9a610b54565b5b6000610ba984828501610b70565b91505092915050565b6000602082019050610bc76000830184610af2565b92915050565b6000602082019050610be26000830184610a96565b92915050565b600081519050919050565b600082825260208201905092915050565b6000819050602082019050919050565b610c1d81610ac5565b82525050565b6000610c2f8383610c14565b60208301905092915050565b6000602082019050919050565b6000610c5382610be8565b610c5d8185610bf3565b9350610c6883610c04565b8060005b83811015610c99578151610c808882610c23565b9750610c8b83610c3b565b925050600181019050610c6c565b5085935050505092915050565b60006020820190508181036000830152610cc08184610c48565b905092915050565b610cd181610a8c565b8114610cdc57600080fd5b50565b600081359050610cee81610cc8565b92915050565b600060208284031215610d0a57610d09610b54565b5b6000610d1884828501610cdf565b91505092915050565b6000602082019050610d366000830184610ad7565b92915050565b600082825260208201905092915050565b7f4d757374207061792065786163746c7920302e30312045544820746f20656e7460008201527f6572000000000000000000000000000000000000000000000000000000000000602082015250565b6000610da9602283610d3c565b9150610db482610d4d565b604082019050919050565b60006020820190508181036000830152610dd881610d9c565b9050919050565b7f506c617965722068617320616c726561647920656e746572656420746869732060008201527f726f756e64000000000000000000000000000000000000000000000000000000602082015250565b6000610e3b602583610d3c565b9150610e4682610ddf565b604082019050919050565b60006020820190508181036000830152610e6a81610e2e565b9050919050565b7f4c6f74746572792069732066756c6c0000000000000000000000000000000000600082015250565b6000610ea7600f83610d3c565b9150610eb282610e71565b602082019050919050565b60006020820190508181036000830152610ed681610e9a565b9050919050565b7f4e487b7100000000000000000000000000000000000000000000000000000000600052601160045260246000fd5b6000610f1782610a8c565b9150610f2283610a8c565b9250828201905080821115610f3a57610f39610edd565b5b92915050565b6000604082019050610f556000830185610a96565b610f626020830184610a96565b9392505050565b7f4e6f7420656e6f75676820706c61796572730000000000000000000000000000600082015250565b6000610f9f601283610d3c565b9150610faa82610f69565b602082019050919050565b60006020820190508181036000830152610fce81610f92565b9050919050565b6000819050919050565b610ff0610feb82610a8c565b610fd5565b82525050565b600081549050919050565b600081905092915050565b60008190508160005260206000209050919050565b61102a81610ac5565b82525050565b600061103c8383611021565b60208301905092915050565b60008160001c9050919050565b600073ffffffffffffffffffffffffffffffffffffffff82169050919050565b600061108861108383611048565b611055565b9050919050565b600061109b8254611075565b9050919050565b6000600182019050919050565b60006110ba82610ff6565b6110c48185611001565b93506110cf8361100c565b8060005b83811015611107576110e48261108f565b6110ee8882611030565b97506110f9836110a2565b9250506001810190506110d3565b5085935050505092915050565b60006111208287610fdf565b6020820191506111308286610fdf565b6020820191506111408285610fdf565b60208201915061115082846110af565b915081905095945050505050565b7f4e487b7100000000000000000000000000000000000000000000000000000000600052601260045260246000fd5b600061119882610a8c565b91506111a383610a8c565b9250826111b3576111b261115e565b5b828206905092915050565b7f4e487b7100000000000000000000000000000000000000000000000000000000600052603260045260246000fd5b600081905092915050565b50565b60006112086000836111ed565b9150611213826111f8565b600082019050919050565b6000611229826111fb565b9150819050919050565b7f5072697a65207472616e73666572206661696c65640000000000000000000000600082015250565b6000611269601583610d3c565b915061127482611233565b602082019050919050565b600060208201905081810360008301526112988161125c565b9050919050565b60006112aa82610a8c565b91507fffffffffffffffffffffffffffffffffffffffffffffffffffffffffffffffff82036112dc576112db610edd565b5b60018201905091905056fea26469706673582212204aa370a4e50dcf9d740da73ab15f725ad78d4c73235fc80abd7b8b1eea19b19964736f6c63430008140033",
  "linkReferences": {},
  "deployedLinkReferences": {}
}