{"abi":[{"type":"constructor","inputs":[{"name":"_paymentToken","type":"address","internalType":"contract MyToken"},{"name":"_ticketToken","type":"address","internalType":"contract MyNft"},{"name":"initialOwner","type":"address","internalType":"address"}],"stateMutability":"nonpayable"},{"type":"function","name":"nextTokenId","inputs":[],"outputs":[{"name":"","type":"uint256","internalType":"uint256"}],"stateMutability":"view"},{"type":"function","name":"owner","inputs":[],"outputs":[{"name":"","type":"address","internalType":"address"}],"stateMutability":"view"},{"type":"function","name":"paymentToken","inputs":[],"outputs":[{"name":"","type":"address","internalType":"contract MyToken"}],"stateMutability":"view"},{"type":"function","name":"purchaseTicket","inputs":[],"outputs":[],"stateMutability":"nonpayable"},{"type":"function","name":"renounceOwnership","inputs":[],"outputs":[],"stateMutability":"nonpayable"},{"type":"function","name":"ticketToken","inputs":[],"outputs":[{"name":"","type":"address","internalType":"contract MyNft"}],"stateMutability":"view"},{"type":"function","name":"transferOwnership","inputs":[{"name":"newOwner","type":"address","internalType":"address"}],"outputs":[],"stateMutability":"nonpayable"},{"type":"function","name":"withdrawFunds","inputs":[],"outputs":[],"stateMutability":"nonpayable"},{"type":"event","name":"OwnershipTransferred","inputs":[{"name":"previousOwner","type":"address","indexed":true,"internalType":"address"},{"name":"newOwner","type":"address","indexed":true,"internalType":"address"}],"anonymous":false},{"type":"event","name":"TicketPurchased","inputs":[{"name":"buyer","type":"address","indexed":true,"internalType":"address"},{"name":"tokenId","type":"uint256","indexed":true,"internalType":"uint256"}],"anonymous":false},{"type":"error","name":"OwnableInvalidOwner","inputs":[{"name":"owner","type":"address","internalType":"address"}]},{"type":"error","name":"OwnableUnauthorizedAccount","inputs":[{"name":"account","type":"address","internalType":"address"}]}],"bytecode":{"object":"0x608060405234801561000f575f5ffd5b50604051611081380380611081833981810160405281019061003191906102d7565b805f73ffffffffffffffffffffffffffffffffffffffff168173ffffffffffffffffffffffffffffffffffffffff16036100a2575f6040517f1e4fbdf70000000000000000000000000000000000000000000000000000000081526004016100999190610336565b60405180910390fd5b6100b18161014260201b60201c565b508260015f6101000a81548173ffffffffffffffffffffffffffffffffffffffff021916908373ffffffffffffffffffffffffffffffffffffffff1602179055508160025f6101000a81548173ffffffffffffffffffffffffffffffffffffffff021916908373ffffffffffffffffffffffffffffffffffffffff160217905550600160038190555050505061034f565b5f5f5f9054906101000a900473ffffffffffffffffffffffffffffffffffffffff169050815f5f6101000a81548173ffffffffffffffffffffffffffffffffffffffff021916908373ffffffffffffffffffffffffffffffffffffffff1602179055508173ffffffffffffffffffffffffffffffffffffffff168173ffffffffffffffffffffffffffffffffffffffff167f8be0079c531659141344cd1fd0a4f28419497f9722a3daafe3b4186f6b6457e060405160405180910390a35050565b5f5ffd5b5f73ffffffffffffffffffffffffffffffffffffffff82169050919050565b5f61023082610207565b9050919050565b5f61024182610226565b9050919050565b61025181610237565b811461025b575f5ffd5b50565b5f8151905061026c81610248565b92915050565b5f61027c82610226565b9050919050565b61028c81610272565b8114610296575f5ffd5b50565b5f815190506102a781610283565b92915050565b6102b681610226565b81146102c0575f5ffd5b50565b5f815190506102d1816102ad565b92915050565b5f5f5f606084860312156102ee576102ed610203565b5b5f6102fb8682870161025e565b935050602061030c86828701610299565b925050604061031d868287016102c3565b9150509250925092565b61033081610226565b82525050565b5f6020820190506103495f830184610327565b92915050565b610d258061035c5f395ff3fe608060405234801561000f575f5ffd5b5060043610610086575f3560e01c806375794a3c1161005957806375794a3c146100c65780638da5cb5b146100e4578063d5ed4d5a14610102578063f2fde38b1461012057610086565b806321846c761461008a57806324600fc3146100945780633013ce291461009e578063715018a6146100bc575b5f5ffd5b61009261013c565b005b61009c610489565b005b6100a661060f565b6040516100b391906108e6565b60405180910390f35b6100c4610634565b005b6100ce610647565b6040516100db9190610917565b60405180910390f35b6100ec61064d565b6040516100f99190610950565b60405180910390f35b61010a610674565b6040516101179190610989565b60405180910390f35b61013a600480360381019061013591906109d0565b610699565b005b5f670de0b6b3a764000090508060015f9054906101000a900473ffffffffffffffffffffffffffffffffffffffff1673ffffffffffffffffffffffffffffffffffffffff166370a08231336040518263ffffffff1660e01b81526004016101a39190610950565b602060405180830381865afa1580156101be573d5f5f3e3d5ffd5b505050506040513d601f19601f820116820180604052508101906101e29190610a25565b1015610223576040517f08c379a000000000000000000000000000000000000000000000000000000000815260040161021a90610aaa565b60405180910390fd5b8060015f9054906101000a900473ffffffffffffffffffffffffffffffffffffffff1673ffffffffffffffffffffffffffffffffffffffff1663dd62ed3e33306040518363ffffffff1660e01b8152600401610280929190610ac8565b602060405180830381865afa15801561029b573d5f5f3e3d5ffd5b505050506040513d601f19601f820116820180604052508101906102bf9190610a25565b1015610300576040517f08c379a00000000000000000000000000000000000000000000000000000000081526004016102f790610b39565b60405180910390fd5b60015f9054906101000a900473ffffffffffffffffffffffffffffffffffffffff1673ffffffffffffffffffffffffffffffffffffffff166323b872dd3330846040518463ffffffff1660e01b815260040161035e93929190610b57565b6020604051808303815f875af115801561037a573d5f5f3e3d5ffd5b505050506040513d601f19601f8201168201806040525081019061039e9190610bc1565b505f60035f8154809291906103b290610c19565b91905055905060025f9054906101000a900473ffffffffffffffffffffffffffffffffffffffff1673ffffffffffffffffffffffffffffffffffffffff1663a144819433836040518363ffffffff1660e01b8152600401610414929190610c60565b5f604051808303815f87803b15801561042b575f5ffd5b505af115801561043d573d5f5f3e3d5ffd5b50505050803373ffffffffffffffffffffffffffffffffffffffff167f0668f5b446eb814fe35b3206f43f14bd8567ba04ddaf7a3ee56516929ab22ccb60405160405180910390a35050565b61049161071d565b5f60015f9054906101000a900473ffffffffffffffffffffffffffffffffffffffff1673ffffffffffffffffffffffffffffffffffffffff166370a08231306040518263ffffffff1660e01b81526004016104ec9190610950565b602060405180830381865afa158015610507573d5f5f3e3d5ffd5b505050506040513d601f19601f8201168201806040525081019061052b9190610a25565b90505f811161056f576040517f08c379a000000000000000000000000000000000000000000000000000000000815260040161056690610cd1565b60405180910390fd5b60015f9054906101000a900473ffffffffffffffffffffffffffffffffffffffff1673ffffffffffffffffffffffffffffffffffffffff1663a9059cbb33836040518363ffffffff1660e01b81526004016105cb929190610c60565b6020604051808303815f875af11580156105e7573d5f5f3e3d5ffd5b505050506040513d601f19601f8201168201806040525081019061060b9190610bc1565b5050565b60015f9054906101000a900473ffffffffffffffffffffffffffffffffffffffff1681565b61063c61071d565b6106455f6107a4565b565b60035481565b5f5f5f9054906101000a900473ffffffffffffffffffffffffffffffffffffffff16905090565b60025f9054906101000a900473ffffffffffffffffffffffffffffffffffffffff1681565b6106a161071d565b5f73ffffffffffffffffffffffffffffffffffffffff168173ffffffffffffffffffffffffffffffffffffffff1603610711575f6040517f1e4fbdf70000000000000000000000000000000000000000000000000000000081526004016107089190610950565b60405180910390fd5b61071a816107a4565b50565b610725610865565b73ffffffffffffffffffffffffffffffffffffffff1661074361064d565b73ffffffffffffffffffffffffffffffffffffffff16146107a257610766610865565b6040517f118cdaa70000000000000000000000000000000000000000000000000000000081526004016107999190610950565b60405180910390fd5b565b5f5f5f9054906101000a900473ffffffffffffffffffffffffffffffffffffffff169050815f5f6101000a81548173ffffffffffffffffffffffffffffffffffffffff021916908373ffffffffffffffffffffffffffffffffffffffff1602179055508173ffffffffffffffffffffffffffffffffffffffff168173ffffffffffffffffffffffffffffffffffffffff167f8be0079c531659141344cd1fd0a4f28419497f9722a3daafe3b4186f6b6457e060405160405180910390a35050565b5f33905090565b5f73ffffffffffffffffffffffffffffffffffffffff82169050919050565b5f819050919050565b5f6108ae6108a96108a48461086c565b61088b565b61086c565b9050919050565b5f6108bf82610894565b9050919050565b5f6108d0826108b5565b9050919050565b6108e0816108c6565b82525050565b5f6020820190506108f95f8301846108d7565b92915050565b5f819050919050565b610911816108ff565b82525050565b5f60208201905061092a5f830184610908565b92915050565b5f61093a8261086c565b9050919050565b61094a81610930565b82525050565b5f6020820190506109635f830184610941565b92915050565b5f610973826108b5565b9050919050565b61098381610969565b82525050565b5f60208201905061099c5f83018461097a565b92915050565b5f5ffd5b6109af81610930565b81146109b9575f5ffd5b50565b5f813590506109ca816109a6565b92915050565b5f602082840312156109e5576109e46109a2565b5b5f6109f2848285016109bc565b91505092915050565b610a04816108ff565b8114610a0e575f5ffd5b50565b5f81519050610a1f816109fb565b92915050565b5f60208284031215610a3a57610a396109a2565b5b5f610a4784828501610a11565b91505092915050565b5f82825260208201905092915050565b7f496e73756666696369656e742062616c616e63650000000000000000000000005f82015250565b5f610a94601483610a50565b9150610a9f82610a60565b602082019050919050565b5f6020820190508181035f830152610ac181610a88565b9050919050565b5f604082019050610adb5f830185610941565b610ae86020830184610941565b9392505050565b7f496e73756666696369656e7420616c6c6f77616e6365000000000000000000005f82015250565b5f610b23601683610a50565b9150610b2e82610aef565b602082019050919050565b5f6020820190508181035f830152610b5081610b17565b9050919050565b5f606082019050610b6a5f830186610941565b610b776020830185610941565b610b846040830184610908565b949350505050565b5f8115159050919050565b610ba081610b8c565b8114610baa575f5ffd5b50565b5f81519050610bbb81610b97565b92915050565b5f60208284031215610bd657610bd56109a2565b5b5f610be384828501610bad565b91505092915050565b7f4e487b71000000000000000000000000000000000000000000000000000000005f52601160045260245ffd5b5f610c23826108ff565b91507fffffffffffffffffffffffffffffffffffffffffffffffffffffffffffffffff8203610c5557610c54610bec565b5b600182019050919050565b5f604082019050610c735f830185610941565b610c806020830184610908565b9392505050565b7f4e6f2066756e647320746f2077697468647261770000000000000000000000005f82015250565b5f610cbb601483610a50565b9150610cc682610c87565b602082019050919050565b5f6020820190508181035f830152610ce881610caf565b905091905056fea26469706673582212208c9d68c88e6286be503a2eb569f8193b0dd4470603ce863d18d4d572a2286cb564736f6c634300081e0033","linkReferences":{}},"methodIdentifiers":{"nextTokenId()":"75794a3c","owner()":"8da5cb5b","paymentToken()":"3013ce29","purchaseTicket()":"21846c76","renounceOwnership()":"715018a6","ticketToken()":"d5ed4d5a","transferOwnership(address)":"f2fde38b","withdrawFunds()":"24600fc3"},"id":43}