{
  "_format": "hh-sol-artifact-1",
  "contractName": "LudoGame",
  "sourceName": "contracts/LudoGame.sol",
  "abi": [
    {
      "inputs": [],
      "stateMutability": "nonpayable",
      "type": "constructor"
    },
    {
      "inputs": [
        {
          "internalType": "address",
          "name": "owner",
          "type": "address"
        }
      ],
      "name": "OwnableInvalidOwner",
      "type": "error"
    },
    {
      "inputs": [
        {
          "internalType": "address",
          "name": "account",
          "type": "address"
        }
      ],
      "name": "OwnableUnauthorizedAccount",
      "type": "error"
    },
    {
      "inputs": [],
      "name": "ReentrancyGuardReentrantCall",
      "type": "error"
    },
    {
      "anonymous": false,
      "inputs": [
        {
          "indexed": true,
          "internalType": "uint256",
          "name": "gameId",
          "type": "uint256"
        },
        {
          "indexed": true,
          "internalType": "address",
          "name": "player",
          "type": "address"
        },
        {
          "indexed": false,
          "internalType": "uint8",
          "name": "diceValue",
          "type": "uint8"
        }
      ],
      "name": "DiceRolled",
      "type": "event"
    },
    {
      "anonymous": false,
      "inputs": [
        {
          "indexed": true,
          "internalType": "uint256",
          "name": "gameId",
          "type": "uint256"
        },
        {
          "indexed": true,
          "internalType": "address",
          "name": "winner",
          "type": "address"
        },
        {
          "indexed": false,
          "internalType": "uint256",
          "name": "prize",
          "type": "uint256"
        }
      ],
      "name": "GameFinished",
      "type": "event"
    },
    {
      "anonymous": false,
      "inputs": [
        {
          "indexed": true,
          "internalType": "uint256",
          "name": "gameId",
          "type": "uint256"
        }
      ],
      "name": "GameStarted",
      "type": "event"
    },
    {
      "anonymous": false,
      "inputs": [
        {
          "indexed": true,
          "internalType": "address",
          "name": "previousOwner",
          "type": "address"
        },
        {
          "indexed": true,
          "internalType": "address",
          "name": "newOwner",
          "type": "address"
        }
      ],
      "name": "OwnershipTransferred",
      "type": "event"
    },
    {
      "anonymous": false,
      "inputs": [
        {
          "indexed": true,
          "internalType": "uint256",
          "name": "gameId",
          "type": "uint256"
        },
        {
          "indexed": true,
          "internalType": "address",
          "name": "player",
          "type": "address"
        },
        {
          "indexed": false,
          "internalType": "uint256",
          "name": "newPosition",
          "type": "uint256"
        }
      ],
      "name": "PlayerMoved",
      "type": "event"
    },
    {
      "anonymous": false,
      "inputs": [
        {
          "indexed": true,
          "internalType": "uint256",
          "name": "gameId",
          "type": "uint256"
        },
        {
          "indexed": true,
          "internalType": "address",
          "name": "player",
          "type": "address"
        },
        {
          "indexed": false,
          "internalType": "string",
          "name": "name",
          "type": "string"
        },
        {
          "indexed": false,
          "internalType": "enum LudoGame.Color",
          "name": "color",
          "type": "uint8"
        }
      ],
      "name": "PlayerRegistered",
      "type": "event"
    },
    {
      "anonymous": false,
      "inputs": [
        {
          "indexed": true,
          "internalType": "uint256",
          "name": "gameId",
          "type": "uint256"
        },
        {
          "indexed": true,
          "internalType": "address",
          "name": "player",
          "type": "address"
        },
        {
          "indexed": false,
          "internalType": "uint256",
          "name": "amount",
          "type": "uint256"
        }
      ],
      "name": "StakeDeposited",
      "type": "event"
    },
    {
      "inputs": [],
      "name": "STAKE_AMOUNT",
      "outputs": [
        {
          "internalType": "uint256",
          "name": "",
          "type": "uint256"
        }
      ],
      "stateMutability": "view",
      "type": "function"
    },
    {
      "inputs": [],
      "name": "createGame",
      "outputs": [
        {
          "internalType": "uint256",
          "name": "",
          "type": "uint256"
        }
      ],
      "stateMutability": "payable",
      "type": "function"
    },
    {
      "inputs": [],
      "name": "emergencyWithdraw",
      "outputs": [],
      "stateMutability": "nonpayable",
      "type": "function"
    },
    {
      "inputs": [],
      "name": "gameCounter",
      "outputs": [
        {
          "internalType": "uint256",
          "name": "",
          "type": "uint256"
        }
      ],
      "stateMutability": "view",
      "type": "function"
    },
    {
      "inputs": [
        {
          "internalType": "uint256",
          "name": "",
          "type": "uint256"
        }
      ],
      "name": "games",
      "outputs": [
        {
          "internalType": "uint256",
          "name": "gameId",
          "type": "uint256"
        },
        {
          "internalType": "uint8",
          "name": "playerCount",
          "type": "uint8"
        },
        {
          "internalType": "uint8",
          "name": "currentPlayerIndex",
          "type": "uint8"
        },
        {
          "internalType": "enum LudoGame.GameState",
          "name": "state",
          "type": "uint8"
        },
        {
          "internalType": "uint256",
          "name": "stakeAmount",
          "type": "uint256"
        },
        {
          "internalType": "address",
          "name": "winner",
          "type": "address"
        },
        {
          "internalType": "uint256",
          "name": "totalPrize",
          "type": "uint256"
        },
        {
          "internalType": "uint256",
          "name": "createdAt",
          "type": "uint256"
        }
      ],
      "stateMutability": "view",
      "type": "function"
    },
    {
      "inputs": [
        {
          "internalType": "uint256",
          "name": "gameId",
          "type": "uint256"
        }
      ],
      "name": "getCurrentPlayer",
      "outputs": [
        {
          "internalType": "address",
          "name": "",
          "type": "address"
        }
      ],
      "stateMutability": "view",
      "type": "function"
    },
    {
      "inputs": [
        {
          "internalType": "uint256",
          "name": "gameId",
          "type": "uint256"
        }
      ],
      "name": "getGame",
      "outputs": [
        {
          "internalType": "uint256",
          "name": "id",
          "type": "uint256"
        },
        {
          "internalType": "uint8",
          "name": "playerCount",
          "type": "uint8"
        },
        {
          "internalType": "uint8",
          "name": "currentPlayerIndex",
          "type": "uint8"
        },
        {
          "internalType": "enum LudoGame.GameState",
          "name": "state",
          "type": "uint8"
        },
        {
          "internalType": "uint256",
          "name": "stakeAmount",
          "type": "uint256"
        },
        {
          "internalType": "address",
          "name": "winner",
          "type": "address"
        },
        {
          "internalType": "uint256",
          "name": "totalPrize",
          "type": "uint256"
        }
      ],
      "stateMutability": "view",
      "type": "function"
    },
    {
      "inputs": [
        {
          "internalType": "uint256",
          "name": "gameId",
          "type": "uint256"
        },
        {
          "internalType": "uint8",
          "name": "playerIndex",
          "type": "uint8"
        }
      ],
      "name": "getPlayer",
      "outputs": [
        {
          "internalType": "address",
          "name": "playerAddress",
          "type": "address"
        },
        {
          "internalType": "string",
          "name": "name",
          "type": "string"
        },
        {
          "internalType": "enum LudoGame.Color",
          "name": "color",
          "type": "uint8"
        },
        {
          "internalType": "uint256",
          "name": "score",
          "type": "uint256"
        },
        {
          "internalType": "uint256",
          "name": "tokenPosition",
          "type": "uint256"
        },
        {
          "internalType": "bool",
          "name": "hasFinished",
          "type": "bool"
        }
      ],
      "stateMutability": "view",
      "type": "function"
    },
    {
      "inputs": [
        {
          "internalType": "address",
          "name": "player",
          "type": "address"
        }
      ],
      "name": "getPlayerCurrentGame",
      "outputs": [
        {
          "internalType": "uint256",
          "name": "",
          "type": "uint256"
        }
      ],
      "stateMutability": "view",
      "type": "function"
    },
    {
      "inputs": [],
      "name": "owner",
      "outputs": [
        {
          "internalType": "address",
          "name": "",
          "type": "address"
        }
      ],
      "stateMutability": "view",
      "type": "function"
    },
    {
      "inputs": [
        {
          "internalType": "address",
          "name": "",
          "type": "address"
        }
      ],
      "name": "playerCurrentGame",
      "outputs": [
        {
          "internalType": "uint256",
          "name": "",
          "type": "uint256"
        }
      ],
      "stateMutability": "view",
      "type": "function"
    },
    {
      "inputs": [
        {
          "internalType": "uint256",
          "name": "gameId",
          "type": "uint256"
        },
        {
          "internalType": "string",
          "name": "playerName",
          "type": "string"
        },
        {
          "internalType": "enum LudoGame.Color",
          "name": "color",
          "type": "uint8"
        }
      ],
      "name": "registerPlayer",
      "outputs": [],
      "stateMutability": "payable",
      "type": "function"
    },
    {
      "inputs": [],
      "name": "renounceOwnership",
      "outputs": [],
      "stateMutability": "nonpayable",
      "type": "function"
    },
    {
      "inputs": [
        {
          "internalType": "uint256",
          "name": "gameId",
          "type": "uint256"
        }
      ],
      "name": "rollDice",
      "outputs": [
        {
          "internalType": "uint8",
          "name": "",
          "type": "uint8"
        }
      ],
      "stateMutability": "nonpayable",
      "type": "function"
    },
    {
      "inputs": [
        {
          "internalType": "address",
          "name": "newOwner",
          "type": "address"
        }
      ],
      "name": "transferOwnership",
      "outputs": [],
      "stateMutability": "nonpayable",
      "type": "function"
    }
  ],
  "bytecode": "0x608060405234801561001057600080fd5b50336001600081905550600073ffffffffffffffffffffffffffffffffffffffff168173ffffffffffffffffffffffffffffffffffffffff160361008c5760006040517f1e4fbdf700000000000000000000000000000000000000000000000000000000815260040161008391906101a8565b60405180910390fd5b61009b816100a160201b60201c565b506101c3565b6000600160009054906101000a900473ffffffffffffffffffffffffffffffffffffffff16905081600160006101000a81548173ffffffffffffffffffffffffffffffffffffffff021916908373ffffffffffffffffffffffffffffffffffffffff1602179055508173ffffffffffffffffffffffffffffffffffffffff168173ffffffffffffffffffffffffffffffffffffffff167f8be0079c531659141344cd1fd0a4f28419497f9722a3daafe3b4186f6b6457e060405160405180910390a35050565b600073ffffffffffffffffffffffffffffffffffffffff82169050919050565b600061019282610167565b9050919050565b6101a281610187565b82525050565b60006020820190506101bd6000830184610199565b92915050565b612f70806101d26000396000f3fe6080604052600436106100e85760003560e01c80639faa1fb11161008a578063db2e21bc11610059578063db2e21bc14610335578063f2fde38b1461034c578063f4b36ac414610375578063faf5625f14610391576100e8565b80639faa1fb114610236578063a2f77bcc14610273578063acfff377146102b6578063b99b1211146102f3576100e8565b80633a5ff200116100c65780633a5ff20014610199578063715018a6146101d65780637255d729146101ed5780638da5cb5b1461020b576100e8565b8063117a5b90146100ed57806326638631146101315780632e0be39a1461016e575b600080fd5b3480156100f957600080fd5b50610114600480360381019061010f9190611d63565b6103bc565b604051610128989796959493929190611e73565b60405180910390f35b34801561013d57600080fd5b5061015860048036038101906101539190611d63565b61044b565b6040516101659190611ef1565b60405180910390f35b34801561017a57600080fd5b5061018361055a565b6040516101909190611f0c565b60405180910390f35b3480156101a557600080fd5b506101c060048036038101906101bb9190611f53565b610560565b6040516101cd9190611f0c565b60405180910390f35b3480156101e257600080fd5b506101eb610578565b005b6101f561058c565b6040516102029190611f0c565b60405180910390f35b34801561021757600080fd5b506102206107c0565b60405161022d9190611ef1565b60405180910390f35b34801561024257600080fd5b5061025d60048036038101906102589190611f53565b6107ea565b60405161026a9190611f0c565b60405180910390f35b34801561027f57600080fd5b5061029a60048036038101906102959190611d63565b610833565b6040516102ad9796959493929190611f80565b60405180910390f35b3480156102c257600080fd5b506102dd60048036038101906102d89190611d63565b6108d8565b6040516102ea9190611fef565b60405180910390f35b3480156102ff57600080fd5b5061031a60048036038101906103159190612036565b610adc565b60405161032c96959493929190612169565b60405180910390f35b34801561034157600080fd5b5061034a610c7e565b005b34801561035857600080fd5b50610373600480360381019061036e9190611f53565b610cd6565b005b61038f600480360381019061038a919061232b565b610d5c565b005b34801561039d57600080fd5b506103a661143b565b6040516103b39190611f0c565b60405180910390f35b600260205280600052604060002060009150905080600001549080601d0160009054906101000a900460ff169080601d0160019054906101000a900460ff169080601d0160029054906101000a900460ff169080601e01549080601f0160009054906101000a900473ffffffffffffffffffffffffffffffffffffffff16908060200154908060210154905088565b60006001600281111561046157610460611dbb565b5b60026000848152602001908152602001600020601d0160029054906101000a900460ff16600281111561049757610496611dbb565b5b146104d7576040517f08c379a00000000000000000000000000000000000000000000000000000000081526004016104ce906123e6565b60405180910390fd5b600060026000848152602001908152602001600020601d0160019054906101000a900460ff169050600260008481526020019081526020016000206001018160ff166004811061052a57610529612406565b5b6007020160000160009054906101000a900473ffffffffffffffffffffffffffffffffffffffff16915050919050565b60045481565b60036020528060005260406000206000915090505481565b610580611447565b61058a60006114ce565b565b6000670de0b6b3a764000034146105d8576040517f08c379a00000000000000000000000000000000000000000000000000000000081526004016105cf906124a7565b60405180910390fd5b6000600360003373ffffffffffffffffffffffffffffffffffffffff1673ffffffffffffffffffffffffffffffffffffffff168152602001908152602001600020541461065a576040517f08c379a000000000000000000000000000000000000000000000000000000000815260040161065190612513565b60405180910390fd5b6004600081548092919061066d90612562565b9190505550600060045490506000600260008381526020019081526020016000209050818160000181905550600081601d0160006101000a81548160ff021916908360ff160217905550600081601d0160016101000a81548160ff021916908360ff160217905550600081601d0160026101000a81548160ff021916908360028111156106fd576106fc611dbb565b5b0217905550670de0b6b3a764000081601e018190555034816020018190555042816021018190555081600360003373ffffffffffffffffffffffffffffffffffffffff1673ffffffffffffffffffffffffffffffffffffffff168152602001908152602001600020819055503373ffffffffffffffffffffffffffffffffffffffff16827f4297eb34ce0f5cba5434e9e5bc90ff09dc76e8c53521965282b3b31bc2dcc4bc346040516107b09190611f0c565b60405180910390a3819250505090565b6000600160009054906101000a900473ffffffffffffffffffffffffffffffffffffffff16905090565b6000600360008373ffffffffffffffffffffffffffffffffffffffff1673ffffffffffffffffffffffffffffffffffffffff168152602001908152602001600020549050919050565b600080600080600080600080600260008a81526020019081526020016000209050806000015481601d0160009054906101000a900460ff1682601d0160019054906101000a900460ff1683601d0160029054906101000a900460ff1684601e015485601f0160009054906101000a900473ffffffffffffffffffffffffffffffffffffffff168660200154975097509750975097509750975050919395979092949650565b6000600160028111156108ee576108ed611dbb565b5b60026000848152602001908152602001600020601d0160029054906101000a900460ff16600281111561092457610923611dbb565b5b14610964576040517f08c379a000000000000000000000000000000000000000000000000000000000815260040161095b906123e6565b60405180910390fd5b61096e8233611594565b6109ad576040517f08c379a00000000000000000000000000000000000000000000000000000000081526004016109a4906125f6565b60405180910390fd5b6109b78233611675565b6109f6576040517f08c379a00000000000000000000000000000000000000000000000000000000081526004016109ed90612662565b60405180910390fd5b60056000815480929190610a0990612562565b91905055506000424433600554600143610a239190612682565b40604051602001610a3895949392919061274a565b6040516020818303038152906040528051906020012060001c905060006001600683610a6491906127d8565b610a6e9190612809565b90503373ffffffffffffffffffffffffffffffffffffffff16847f1701fdea8aa3a219ddfea8b4cf993f7828c6a5300030a17da093bafa0b3155d183604051610ab79190611fef565b60405180910390a3610ac98482611728565b610ad284611b6c565b8092505050919050565b6000606060008060008060026000898152602001908152602001600020601d0160009054906101000a900460ff1660ff168760ff1610610b51576040517f08c379a0000000000000000000000000000000000000000000000000000000008152600401610b4890612889565b60405180910390fd5b6000600260008a81526020019081526020016000206001018860ff1660048110610b7e57610b7d612406565b5b6007020190508060000160009054906101000a900473ffffffffffffffffffffffffffffffffffffffff16816001018260020160009054906101000a900460ff16836003015484600501548560060160009054906101000a900460ff16848054610be7906128d8565b80601f0160208091040260200160405190810160405280929190818152602001828054610c13906128d8565b8015610c605780601f10610c3557610100808354040283529160200191610c60565b820191906000526020600020905b815481529060010190602001808311610c4357829003601f168201915b50505050509450965096509650965096509650509295509295509295565b610c86611447565b610c8e6107c0565b73ffffffffffffffffffffffffffffffffffffffff166108fc479081150290604051600060405180830381858888f19350505050158015610cd3573d6000803e3d6000fd5b50565b610cde611447565b600073ffffffffffffffffffffffffffffffffffffffff168173ffffffffffffffffffffffffffffffffffffffff1603610d505760006040517f1e4fbdf7000000000000000000000000000000000000000000000000000000008152600401610d479190611ef1565b60405180910390fd5b610d59816114ce565b50565b6000600260008581526020019081526020016000206000015403610db5576040517f08c379a0000000000000000000000000000000000000000000000000000000008152600401610dac90612955565b60405180910390fd5b60006002811115610dc957610dc8611dbb565b5b60026000858152602001908152602001600020601d0160029054906101000a900460ff166002811115610dff57610dfe611dbb565b5b14610e3f576040517f08c379a0000000000000000000000000000000000000000000000000000000008152600401610e36906129c1565b60405180910390fd5b600460026000858152602001908152602001600020601d0160009054906101000a900460ff1660ff1610610ea8576040517f08c379a0000000000000000000000000000000000000000000000000000000008152600401610e9f90612a2d565b60405180910390fd5b670de0b6b3a76400003414610ef2576040517f08c379a0000000000000000000000000000000000000000000000000000000008152600401610ee990612a99565b60405180910390fd5b6000600360003373ffffffffffffffffffffffffffffffffffffffff1673ffffffffffffffffffffffffffffffffffffffff1681526020019081526020016000205414610f74576040517f08c379a0000000000000000000000000000000000000000000000000000000008152600401610f6b90612513565b60405180910390fd5b6000825111610fb8576040517f08c379a0000000000000000000000000000000000000000000000000000000008152600401610faf90612b05565b60405180910390fd5b60005b60026000858152602001908152602001600020601d0160009054906101000a900460ff1660ff168160ff16101561109e57816003811115610fff57610ffe611dbb565b5b600260008681526020019081526020016000206001018260ff166004811061102a57611029612406565b5b6007020160020160009054906101000a900460ff16600381111561105157611050611dbb565b5b03611091576040517f08c379a000000000000000000000000000000000000000000000000000000000815260040161108890612b71565b60405180910390fd5b8080600101915050610fbb565b50600060026000858152602001908152602001600020601d0160009054906101000a900460ff1690506040518060e001604052803373ffffffffffffffffffffffffffffffffffffffff16815260200184815260200183600381111561110757611106611dbb565b5b8152602001600081526020016001151581526020016000815260200160001515815250600260008681526020019081526020016000206001018260ff166004811061115557611154612406565b5b6007020160008201518160000160006101000a81548173ffffffffffffffffffffffffffffffffffffffff021916908373ffffffffffffffffffffffffffffffffffffffff16021790555060208201518160010190816111b59190612d3d565b5060408201518160020160006101000a81548160ff021916908360038111156111e1576111e0611dbb565b5b02179055506060820151816003015560808201518160040160006101000a81548160ff02191690831515021790555060a0820151816005015560c08201518160060160006101000a81548160ff02191690831515021790555090505060026000858152602001908152602001600020601d01600081819054906101000a900460ff168092919061127090612e0f565b91906101000a81548160ff021916908360ff16021790555050346002600086815260200190815260200160002060200160008282546112af9190612809565b9250508190555083600360003373ffffffffffffffffffffffffffffffffffffffff1673ffffffffffffffffffffffffffffffffffffffff168152602001908152602001600020819055503373ffffffffffffffffffffffffffffffffffffffff16847f5edf2924394e7b2faa5b3d07f148ab6d59f7051a142b081bd3552b8d432e82fe8585604051611343929190612e38565b60405180910390a33373ffffffffffffffffffffffffffffffffffffffff16847f4297eb34ce0f5cba5434e9e5bc90ff09dc76e8c53521965282b3b31bc2dcc4bc346040516113929190611f0c565b60405180910390a3600460026000868152602001908152602001600020601d0160009054906101000a900460ff1660ff160361143557600160026000868152602001908152602001600020601d0160026101000a81548160ff0219169083600281111561140257611401611dbb565b5b0217905550837f50ad08f58a27f2851d7e3a1b3a6a46b290f2ce677e99642d30ff639721e7779060405160405180910390a25b50505050565b670de0b6b3a764000081565b61144f611bfb565b73ffffffffffffffffffffffffffffffffffffffff1661146d6107c0565b73ffffffffffffffffffffffffffffffffffffffff16146114cc57611490611bfb565b6040517f118cdaa70000000000000000000000000000000000000000000000000000000081526004016114c39190611ef1565b60405180910390fd5b565b6000600160009054906101000a900473ffffffffffffffffffffffffffffffffffffffff16905081600160006101000a81548173ffffffffffffffffffffffffffffffffffffffff021916908373ffffffffffffffffffffffffffffffffffffffff1602179055508173ffffffffffffffffffffffffffffffffffffffff168173ffffffffffffffffffffffffffffffffffffffff167f8be0079c531659141344cd1fd0a4f28419497f9722a3daafe3b4186f6b6457e060405160405180910390a35050565b600080600090505b60026000858152602001908152602001600020601d0160009054906101000a900460ff1660ff168160ff161015611669578273ffffffffffffffffffffffffffffffffffffffff16600260008681526020019081526020016000206001018260ff166004811061160f5761160e612406565b5b6007020160000160009054906101000a900473ffffffffffffffffffffffffffffffffffffffff1673ffffffffffffffffffffffffffffffffffffffff160361165c57600191505061166f565b808060010191505061159c565b50600090505b92915050565b60008060026000858152602001908152602001600020601d0160019054906101000a900460ff1690508273ffffffffffffffffffffffffffffffffffffffff16600260008681526020019081526020016000206001018260ff16600481106116e0576116df612406565b5b6007020160000160009054906101000a900473ffffffffffffffffffffffffffffffffffffffff1673ffffffffffffffffffffffffffffffffffffffff161491505092915050565b60006117348333611c03565b90506000600260008581526020019081526020016000206001018260ff166004811061176357611762612406565b5b60070201905060008360ff16826005015461177e9190612809565b905060348110611acb576034905060018260060160006101000a81548160ff02191690831515021790555060648260030160008282546117be9190612809565b92505081905550600073ffffffffffffffffffffffffffffffffffffffff1660026000878152602001908152602001600020601f0160009054906101000a900473ffffffffffffffffffffffffffffffffffffffff1673ffffffffffffffffffffffffffffffffffffffff1603611aca578160000160009054906101000a900473ffffffffffffffffffffffffffffffffffffffff1660026000878152602001908152602001600020601f0160006101000a81548173ffffffffffffffffffffffffffffffffffffffff021916908373ffffffffffffffffffffffffffffffffffffffff1602179055506002806000878152602001908152602001600020601d0160026101000a81548160ff021916908360028111156118e1576118e0611dbb565b5b02179055508160000160009054906101000a900473ffffffffffffffffffffffffffffffffffffffff1673ffffffffffffffffffffffffffffffffffffffff166108fc60026000888152602001908152602001600020602001549081150290604051600060405180830381858888f19350505050158015611966573d6000803e3d6000fd5b5060005b60026000878152602001908152602001600020601d0160009054906101000a900460ff1660ff168160ff161015611a3f57600060036000600260008a81526020019081526020016000206001018460ff16600481106119cc576119cb612406565b5b6007020160000160009054906101000a900473ffffffffffffffffffffffffffffffffffffffff1673ffffffffffffffffffffffffffffffffffffffff1673ffffffffffffffffffffffffffffffffffffffff16815260200190815260200160002081905550808060010191505061196a565b508160000160009054906101000a900473ffffffffffffffffffffffffffffffffffffffff1673ffffffffffffffffffffffffffffffffffffffff16857ff5d92df6ae1a0b46d0a0c57c2e1da0d75d7591d2804ad086cb1e27ba67de7aaf6002600089815260200190815260200160002060200154604051611ac19190611f0c565b60405180910390a35b5b8082600501819055508360ff16826003016000828254611aeb9190612809565b925050819055508160000160009054906101000a900473ffffffffffffffffffffffffffffffffffffffff1673ffffffffffffffffffffffffffffffffffffffff16857f953a0c0baf4a6e0dc4e5e310567187c0e370783b04a1c4ddbe4e721c8aac945c83604051611b5d9190611f0c565b60405180910390a35050505050565b60026000828152602001908152602001600020601d0160009054906101000a900460ff16600160026000848152602001908152602001600020601d0160019054906101000a900460ff16611bc09190612e68565b611bca9190612e9d565b60026000838152602001908152602001600020601d0160016101000a81548160ff021916908360ff16021790555050565b600033905090565b600080600090505b60026000858152602001908152602001600020601d0160009054906101000a900460ff1660ff168160ff161015611cd7578273ffffffffffffffffffffffffffffffffffffffff16600260008681526020019081526020016000206001018260ff1660048110611c7e57611c7d612406565b5b6007020160000160009054906101000a900473ffffffffffffffffffffffffffffffffffffffff1673ffffffffffffffffffffffffffffffffffffffff1603611cca5780915050611d13565b8080600101915050611c0b565b506040517f08c379a0000000000000000000000000000000000000000000000000000000008152600401611d0a90612f1a565b60405180910390fd5b92915050565b6000604051905090565b600080fd5b600080fd5b6000819050919050565b611d4081611d2d565b8114611d4b57600080fd5b50565b600081359050611d5d81611d37565b92915050565b600060208284031215611d7957611d78611d23565b5b6000611d8784828501611d4e565b91505092915050565b611d9981611d2d565b82525050565b600060ff82169050919050565b611db581611d9f565b82525050565b7f4e487b7100000000000000000000000000000000000000000000000000000000600052602160045260246000fd5b60038110611dfb57611dfa611dbb565b5b50565b6000819050611e0c82611dea565b919050565b6000611e1c82611dfe565b9050919050565b611e2c81611e11565b82525050565b600073ffffffffffffffffffffffffffffffffffffffff82169050919050565b6000611e5d82611e32565b9050919050565b611e6d81611e52565b82525050565b600061010082019050611e89600083018b611d90565b611e96602083018a611dac565b611ea36040830189611dac565b611eb06060830188611e23565b611ebd6080830187611d90565b611eca60a0830186611e64565b611ed760c0830185611d90565b611ee460e0830184611d90565b9998505050505050505050565b6000602082019050611f066000830184611e64565b92915050565b6000602082019050611f216000830184611d90565b92915050565b611f3081611e52565b8114611f3b57600080fd5b50565b600081359050611f4d81611f27565b92915050565b600060208284031215611f6957611f68611d23565b5b6000611f7784828501611f3e565b91505092915050565b600060e082019050611f95600083018a611d90565b611fa26020830189611dac565b611faf6040830188611dac565b611fbc6060830187611e23565b611fc96080830186611d90565b611fd660a0830185611e64565b611fe360c0830184611d90565b98975050505050505050565b60006020820190506120046000830184611dac565b92915050565b61201381611d9f565b811461201e57600080fd5b50565b6000813590506120308161200a565b92915050565b6000806040838503121561204d5761204c611d23565b5b600061205b85828601611d4e565b925050602061206c85828601612021565b9150509250929050565b600081519050919050565b600082825260208201905092915050565b60005b838110156120b0578082015181840152602081019050612095565b60008484015250505050565b6000601f19601f8301169050919050565b60006120d882612076565b6120e28185612081565b93506120f2818560208601612092565b6120fb816120bc565b840191505092915050565b6004811061211757612116611dbb565b5b50565b600081905061212882612106565b919050565b60006121388261211a565b9050919050565b6121488161212d565b82525050565b60008115159050919050565b6121638161214e565b82525050565b600060c08201905061217e6000830189611e64565b818103602083015261219081886120cd565b905061219f604083018761213f565b6121ac6060830186611d90565b6121b96080830185611d90565b6121c660a083018461215a565b979650505050505050565b600080fd5b600080fd5b7f4e487b7100000000000000000000000000000000000000000000000000000000600052604160045260246000fd5b612213826120bc565b810181811067ffffffffffffffff82111715612232576122316121db565b5b80604052505050565b6000612245611d19565b9050612251828261220a565b919050565b600067ffffffffffffffff821115612271576122706121db565b5b61227a826120bc565b9050602081019050919050565b82818337600083830152505050565b60006122a96122a484612256565b61223b565b9050828152602081018484840111156122c5576122c46121d6565b5b6122d0848285612287565b509392505050565b600082601f8301126122ed576122ec6121d1565b5b81356122fd848260208601612296565b91505092915050565b6004811061231357600080fd5b50565b60008135905061232581612306565b92915050565b60008060006060848603121561234457612343611d23565b5b600061235286828701611d4e565b935050602084013567ffffffffffffffff81111561237357612372611d28565b5b61237f868287016122d8565b925050604061239086828701612316565b9150509250925092565b7f47616d65206e6f7420696e2070726f6772657373000000000000000000000000600082015250565b60006123d0601483612081565b91506123db8261239a565b602082019050919050565b600060208201905081810360008301526123ff816123c3565b9050919050565b7f4e487b7100000000000000000000000000000000000000000000000000000000600052603260045260246000fd5b7f4d757374207374616b652065786163746c7920312045544820746f206372656160008201527f74652067616d6500000000000000000000000000000000000000000000000000602082015250565b6000612491602783612081565b915061249c82612435565b604082019050919050565b600060208201905081810360008301526124c081612484565b9050919050565b7f416c726561647920696e20612067616d65000000000000000000000000000000600082015250565b60006124fd601183612081565b9150612508826124c7565b602082019050919050565b6000602082019050818103600083015261252c816124f0565b9050919050565b7f4e487b7100000000000000000000000000000000000000000000000000000000600052601160045260246000fd5b600061256d82611d2d565b91507fffffffffffffffffffffffffffffffffffffffffffffffffffffffffffffffff820361259f5761259e612533565b5b600182019050919050565b7f4e6f74206120706c6179657220696e20746869732067616d6500000000000000600082015250565b60006125e0601983612081565b91506125eb826125aa565b602082019050919050565b6000602082019050818103600083015261260f816125d3565b9050919050565b7f4e6f7420796f7572207475726e00000000000000000000000000000000000000600082015250565b600061264c600d83612081565b915061265782612616565b602082019050919050565b6000602082019050818103600083015261267b8161263f565b9050919050565b600061268d82611d2d565b915061269883611d2d565b92508282039050818111156126b0576126af612533565b5b92915050565b6000819050919050565b6126d16126cc82611d2d565b6126b6565b82525050565b60008160601b9050919050565b60006126ef826126d7565b9050919050565b6000612701826126e4565b9050919050565b61271961271482611e52565b6126f6565b82525050565b6000819050919050565b6000819050919050565b61274461273f8261271f565b612729565b82525050565b600061275682886126c0565b60208201915061276682876126c0565b6020820191506127768286612708565b60148201915061278682856126c0565b6020820191506127968284612733565b6020820191508190509695505050505050565b7f4e487b7100000000000000000000000000000000000000000000000000000000600052601260045260246000fd5b60006127e382611d2d565b91506127ee83611d2d565b9250826127fe576127fd6127a9565b5b828206905092915050565b600061281482611d2d565b915061281f83611d2d565b925082820190508082111561283757612836612533565b5b92915050565b7f496e76616c696420706c6179657220696e646578000000000000000000000000600082015250565b6000612873601483612081565b915061287e8261283d565b602082019050919050565b600060208201905081810360008301526128a281612866565b9050919050565b7f4e487b7100000000000000000000000000000000000000000000000000000000600052602260045260246000fd5b600060028204905060018216806128f057607f821691505b602082108103612903576129026128a9565b5b50919050565b7f47616d6520646f6573206e6f7420657869737400000000000000000000000000600082015250565b600061293f601383612081565b915061294a82612909565b602082019050919050565b6000602082019050818103600083015261296e81612932565b9050919050565b7f47616d65206e6f7420616363657074696e6720706c6179657273000000000000600082015250565b60006129ab601a83612081565b91506129b682612975565b602082019050919050565b600060208201905081810360008301526129da8161299e565b9050919050565b7f47616d652069732066756c6c0000000000000000000000000000000000000000600082015250565b6000612a17600c83612081565b9150612a22826129e1565b602082019050919050565b60006020820190508181036000830152612a4681612a0a565b9050919050565b7f4d757374207374616b652065786163746c7920312045544820746f206a6f696e600082015250565b6000612a83602083612081565b9150612a8e82612a4d565b602082019050919050565b60006020820190508181036000830152612ab281612a76565b9050919050565b7f4e616d652063616e6e6f7420626520656d707479000000000000000000000000600082015250565b6000612aef601483612081565b9150612afa82612ab9565b602082019050919050565b60006020820190508181036000830152612b1e81612ae2565b9050919050565b7f436f6c6f7220616c72656164792074616b656e00000000000000000000000000600082015250565b6000612b5b601383612081565b9150612b6682612b25565b602082019050919050565b60006020820190508181036000830152612b8a81612b4e565b9050919050565b60008190508160005260206000209050919050565b60006020601f8301049050919050565b600082821b905092915050565b600060088302612bf37fffffffffffffffffffffffffffffffffffffffffffffffffffffffffffffffff82612bb6565b612bfd8683612bb6565b95508019841693508086168417925050509392505050565b6000819050919050565b6000612c3a612c35612c3084611d2d565b612c15565b611d2d565b9050919050565b6000819050919050565b612c5483612c1f565b612c68612c6082612c41565b848454612bc3565b825550505050565b600090565b612c7d612c70565b612c88818484612c4b565b505050565b5b81811015612cac57612ca1600082612c75565b600181019050612c8e565b5050565b601f821115612cf157612cc281612b91565b612ccb84612ba6565b81016020851015612cda578190505b612cee612ce685612ba6565b830182612c8d565b50505b505050565b600082821c905092915050565b6000612d1460001984600802612cf6565b1980831691505092915050565b6000612d2d8383612d03565b9150826002028217905092915050565b612d4682612076565b67ffffffffffffffff811115612d5f57612d5e6121db565b5b612d6982546128d8565b612d74828285612cb0565b600060209050601f831160018114612da75760008415612d95578287015190505b612d9f8582612d21565b865550612e07565b601f198416612db586612b91565b60005b82811015612ddd57848901518255600182019150602085019450602081019050612db8565b86831015612dfa5784890151612df6601f891682612d03565b8355505b6001600288020188555050505b505050505050565b6000612e1a82611d9f565b915060ff8203612e2d57612e2c612533565b5b600182019050919050565b60006040820190508181036000830152612e5281856120cd565b9050612e61602083018461213f565b9392505050565b6000612e7382611d9f565b9150612e7e83611d9f565b9250828201905060ff811115612e9757612e96612533565b5b92915050565b6000612ea882611d9f565b9150612eb383611d9f565b925082612ec357612ec26127a9565b5b828206905092915050565b7f506c61796572206e6f7420666f756e6400000000000000000000000000000000600082015250565b6000612f04601083612081565b9150612f0f82612ece565b602082019050919050565b60006020820190508181036000830152612f3381612ef7565b905091905056fea26469706673582212206d15a19fb1059ba632ee72e243053dcf96d5bc652ef8d57c44252215caa755fa64736f6c634300081c0033",
  "linkReferences": {},
  "deployedLinkReferences": {}
}