{
  "_format": "hh-sol-artifact-1",
  "contractName": "SchoolMS",
  "sourceName": "contracts/SchoolMS.sol",
  "abi": [
    {
      "inputs": [
        {
          "internalType": "uint256",
          "name": "_id",
          "type": "uint256"
        },
        {
          "internalType": "enum SchoolMS.Status",
          "name": "_status",
          "type": "uint8"
        }
      ],
      "name": "changeStatus",
      "outputs": [],
      "stateMutability": "nonpayable",
      "type": "function"
    },
    {
      "inputs": [
        {
          "internalType": "string",
          "name": "_name",
          "type": "string"
        },
        {
          "internalType": "string",
          "name": "_email",
          "type": "string"
        },
        {
          "internalType": "uint256",
          "name": "_age",
          "type": "uint256"
        }
      ],
      "name": "createStudent",
      "outputs": [],
      "stateMutability": "nonpayable",
      "type": "function"
    },
    {
      "inputs": [
        {
          "internalType": "uint256",
          "name": "_id",
          "type": "uint256"
        }
      ],
      "name": "deleteStudent",
      "outputs": [],
      "stateMutability": "nonpayable",
      "type": "function"
    },
    {
      "inputs": [],
      "name": "getAllStudents",
      "outputs": [
        {
          "components": [
            {
              "internalType": "uint256",
              "name": "id",
              "type": "uint256"
            },
            {
              "internalType": "string",
              "name": "name",
              "type": "string"
            },
            {
              "internalType": "string",
              "name": "email",
              "type": "string"
            },
            {
              "internalType": "uint256",
              "name": "age",
              "type": "uint256"
            },
            {
              "internalType": "enum SchoolMS.Status",
              "name": "status",
              "type": "uint8"
            }
          ],
          "internalType": "struct SchoolMS.Student[]",
          "name": "",
          "type": "tuple[]"
        }
      ],
      "stateMutability": "view",
      "type": "function"
    },
    {
      "inputs": [
        {
          "internalType": "uint256",
          "name": "_id",
          "type": "uint256"
        }
      ],
      "name": "getStudent",
      "outputs": [
        {
          "components": [
            {
              "internalType": "uint256",
              "name": "id",
              "type": "uint256"
            },
            {
              "internalType": "string",
              "name": "name",
              "type": "string"
            },
            {
              "internalType": "string",
              "name": "email",
              "type": "string"
            },
            {
              "internalType": "uint256",
              "name": "age",
              "type": "uint256"
            },
            {
              "internalType": "enum SchoolMS.Status",
              "name": "status",
              "type": "uint8"
            }
          ],
          "internalType": "struct SchoolMS.Student",
          "name": "",
          "type": "tuple"
        }
      ],
      "stateMutability": "view",
      "type": "function"
    },
    {
      "inputs": [
        {
          "internalType": "uint256",
          "name": "",
          "type": "uint256"
        }
      ],
      "name": "students",
      "outputs": [
        {
          "internalType": "uint256",
          "name": "id",
          "type": "uint256"
        },
        {
          "internalType": "string",
          "name": "name",
          "type": "string"
        },
        {
          "internalType": "string",
          "name": "email",
          "type": "string"
        },
        {
          "internalType": "uint256",
          "name": "age",
          "type": "uint256"
        },
        {
          "internalType": "enum SchoolMS.Status",
          "name": "status",
          "type": "uint8"
        }
      ],
      "stateMutability": "view",
      "type": "function"
    },
    {
      "inputs": [
        {
          "internalType": "uint256",
          "name": "_id",
          "type": "uint256"
        },
        {
          "internalType": "string",
          "name": "_name",
          "type": "string"
        },
        {
          "internalType": "string",
          "name": "_email",
          "type": "string"
        },
        {
          "internalType": "uint256",
          "name": "_age",
          "type": "uint256"
        }
      ],
      "name": "updateStudent",
      "outputs": [],
      "stateMutability": "nonpayable",
      "type": "function"
    }
  ],
  "bytecode": "0x608060405260018055348015601357600080fd5b50611831806100236000396000f3fe608060405234801561001057600080fd5b506004361061007d5760003560e01c80639134e1db1161005b5780639134e1db14610102578063b645307d1461011e578063c5a8a2ab1461013a578063e9e30927146101565761007d565b806306ead22e14610082578063642f9163146100b65780637312f553146100e6575b600080fd5b61009c60048036038101906100979190610bda565b610174565b6040516100ad959493929190610d1d565b60405180910390f35b6100d060048036038101906100cb9190610bda565b6102d7565b6040516100dd9190610e63565b60405180910390f35b61010060048036038101906100fb9190610fba565b610511565b005b61011c60048036038101906101179190611059565b6105f6565b005b61013860048036038101906101339190610bda565b6106ec565b005b610154600480360381019061014f9190611109565b610880565b005b61015e610920565b60405161016b9190611288565b60405180910390f35b6000818154811061018457600080fd5b90600052602060002090600502016000915090508060000154908060010180546101ad906112d9565b80601f01602080910402602001604051908101604052809291908181526020018280546101d9906112d9565b80156102265780601f106101fb57610100808354040283529160200191610226565b820191906000526020600020905b81548152906001019060200180831161020957829003601f168201915b50505050509080600201805461023b906112d9565b80601f0160208091040260200160405190810160405280929190818152602001828054610267906112d9565b80156102b45780601f10610289576101008083540402835291602001916102b4565b820191906000526020600020905b81548152906001019060200180831161029757829003601f168201915b5050505050908060030154908060040160009054906101000a900460ff16905085565b6102df610af2565b60005b6000805490508110156104d05782600082815481106103045761030361130a565b5b906000526020600020906005020160000154036104c3576000818154811061032f5761032e61130a565b5b90600052602060002090600502016040518060a001604052908160008201548152602001600182018054610362906112d9565b80601f016020809104026020016040519081016040528092919081815260200182805461038e906112d9565b80156103db5780601f106103b0576101008083540402835291602001916103db565b820191906000526020600020905b8154815290600101906020018083116103be57829003601f168201915b505050505081526020016002820180546103f4906112d9565b80601f0160208091040260200160405190810160405280929190818152602001828054610420906112d9565b801561046d5780601f106104425761010080835404028352916020019161046d565b820191906000526020600020905b81548152906001019060200180831161045057829003601f168201915b50505050508152602001600382015481526020016004820160009054906101000a900460ff1660028111156104a5576104a4610ca6565b5b60028111156104b7576104b6610ca6565b5b8152505091505061050c565b80806001019150506102e2565b506040517f08c379a000000000000000000000000000000000000000000000000000000000815260040161050390611385565b60405180910390fd5b919050565b60005b6000805490508110156105ef5784600082815481106105365761053561130a565b5b906000526020600020906005020160000154036105e25783600082815481106105625761056161130a565b5b9060005260206000209060050201600101908161057f9190611551565b5082600082815481106105955761059461130a565b5b906000526020600020906005020160020190816105b29190611551565b5081600082815481106105c8576105c761130a565b5b9060005260206000209060050201600301819055506105ef565b8080600101915050610514565b5050505050565b60006040518060a0016040528060015481526020018581526020018481526020018381526020016000600281111561063157610630610ca6565b5b815250908060018154018082558091505060019003906000526020600020906005020160009091909190915060008201518160000155602082015181600101908161067c9190611551565b5060408201518160020190816106929190611551565b506060820151816003015560808201518160040160006101000a81548160ff021916908360028111156106c8576106c7610ca6565b5b02179055505050600160008154809291906106e290611652565b9190505550505050565b60005b60008054905081101561087c5781600082815481106107115761071061130a565b5b9060005260206000209060050201600001540361086f576000600160008054905061073c919061169a565b8154811061074d5761074c61130a565b5b90600052602060002090600502016000828154811061076f5761076e61130a565b5b9060005260206000209060050201600082015481600001556001820181600101908161079b91906116e4565b50600282018160020190816107b091906116e4565b50600382015481600301556004820160009054906101000a900460ff168160040160006101000a81548160ff021916908360028111156107f3576107f2610ca6565b5b0217905550905050600080548061080d5761080c6117cc565b5b600190038181906000526020600020906005020160008082016000905560018201600061083a9190610b33565b60028201600061084a9190610b33565b60038201600090556004820160006101000a81549060ff02191690555050905561087c565b80806001019150506106ef565b5050565b60005b60008054905081101561091b5782600082815481106108a5576108a461130a565b5b9060005260206000209060050201600001540361090e5781600082815481106108d1576108d061130a565b5b906000526020600020906005020160040160006101000a81548160ff0219169083600281111561090457610903610ca6565b5b021790555061091b565b8080600101915050610883565b505050565b60606000805480602002602001604051908101604052809291908181526020016000905b82821015610ae957838290600052602060002090600502016040518060a001604052908160008201548152602001600182018054610981906112d9565b80601f01602080910402602001604051908101604052809291908181526020018280546109ad906112d9565b80156109fa5780601f106109cf576101008083540402835291602001916109fa565b820191906000526020600020905b8154815290600101906020018083116109dd57829003601f168201915b50505050508152602001600282018054610a13906112d9565b80601f0160208091040260200160405190810160405280929190818152602001828054610a3f906112d9565b8015610a8c5780601f10610a6157610100808354040283529160200191610a8c565b820191906000526020600020905b815481529060010190602001808311610a6f57829003601f168201915b50505050508152602001600382015481526020016004820160009054906101000a900460ff166002811115610ac457610ac3610ca6565b5b6002811115610ad657610ad5610ca6565b5b8152505081526020019060010190610944565b50505050905090565b6040518060a001604052806000815260200160608152602001606081526020016000815260200160006002811115610b2d57610b2c610ca6565b5b81525090565b508054610b3f906112d9565b6000825580601f10610b515750610b70565b601f016020900490600052602060002090810190610b6f9190610b73565b5b50565b5b80821115610b8c576000816000905550600101610b74565b5090565b6000604051905090565b600080fd5b600080fd5b6000819050919050565b610bb781610ba4565b8114610bc257600080fd5b50565b600081359050610bd481610bae565b92915050565b600060208284031215610bf057610bef610b9a565b5b6000610bfe84828501610bc5565b91505092915050565b610c1081610ba4565b82525050565b600081519050919050565b600082825260208201905092915050565b60005b83811015610c50578082015181840152602081019050610c35565b60008484015250505050565b6000601f19601f8301169050919050565b6000610c7882610c16565b610c828185610c21565b9350610c92818560208601610c32565b610c9b81610c5c565b840191505092915050565b7f4e487b7100000000000000000000000000000000000000000000000000000000600052602160045260246000fd5b60038110610ce657610ce5610ca6565b5b50565b6000819050610cf782610cd5565b919050565b6000610d0782610ce9565b9050919050565b610d1781610cfc565b82525050565b600060a082019050610d326000830188610c07565b8181036020830152610d448187610c6d565b90508181036040830152610d588186610c6d565b9050610d676060830185610c07565b610d746080830184610d0e565b9695505050505050565b610d8781610ba4565b82525050565b600082825260208201905092915050565b6000610da982610c16565b610db38185610d8d565b9350610dc3818560208601610c32565b610dcc81610c5c565b840191505092915050565b610de081610cfc565b82525050565b600060a083016000830151610dfe6000860182610d7e565b5060208301518482036020860152610e168282610d9e565b91505060408301518482036040860152610e308282610d9e565b9150506060830151610e456060860182610d7e565b506080830151610e586080860182610dd7565b508091505092915050565b60006020820190508181036000830152610e7d8184610de6565b905092915050565b600080fd5b600080fd5b7f4e487b7100000000000000000000000000000000000000000000000000000000600052604160045260246000fd5b610ec782610c5c565b810181811067ffffffffffffffff82111715610ee657610ee5610e8f565b5b80604052505050565b6000610ef9610b90565b9050610f058282610ebe565b919050565b600067ffffffffffffffff821115610f2557610f24610e8f565b5b610f2e82610c5c565b9050602081019050919050565b82818337600083830152505050565b6000610f5d610f5884610f0a565b610eef565b905082815260208101848484011115610f7957610f78610e8a565b5b610f84848285610f3b565b509392505050565b600082601f830112610fa157610fa0610e85565b5b8135610fb1848260208601610f4a565b91505092915050565b60008060008060808587031215610fd457610fd3610b9a565b5b6000610fe287828801610bc5565b945050602085013567ffffffffffffffff81111561100357611002610b9f565b5b61100f87828801610f8c565b935050604085013567ffffffffffffffff8111156110305761102f610b9f565b5b61103c87828801610f8c565b925050606061104d87828801610bc5565b91505092959194509250565b60008060006060848603121561107257611071610b9a565b5b600084013567ffffffffffffffff8111156110905761108f610b9f565b5b61109c86828701610f8c565b935050602084013567ffffffffffffffff8111156110bd576110bc610b9f565b5b6110c986828701610f8c565b92505060406110da86828701610bc5565b9150509250925092565b600381106110f157600080fd5b50565b600081359050611103816110e4565b92915050565b600080604083850312156111205761111f610b9a565b5b600061112e85828601610bc5565b925050602061113f858286016110f4565b9150509250929050565b600081519050919050565b600082825260208201905092915050565b6000819050602082019050919050565b600060a08301600083015161118d6000860182610d7e565b50602083015184820360208601526111a58282610d9e565b915050604083015184820360408601526111bf8282610d9e565b91505060608301516111d46060860182610d7e565b5060808301516111e76080860182610dd7565b508091505092915050565b60006111fe8383611175565b905092915050565b6000602082019050919050565b600061121e82611149565b6112288185611154565b93508360208202850161123a85611165565b8060005b85811015611276578484038952815161125785826111f2565b945061126283611206565b925060208a0199505060018101905061123e565b50829750879550505050505092915050565b600060208201905081810360008301526112a28184611213565b905092915050565b7f4e487b7100000000000000000000000000000000000000000000000000000000600052602260045260246000fd5b600060028204905060018216806112f157607f821691505b602082108103611304576113036112aa565b5b50919050565b7f4e487b7100000000000000000000000000000000000000000000000000000000600052603260045260246000fd5b7f53747564656e74206e6f7420666f756e64000000000000000000000000000000600082015250565b600061136f601183610c21565b915061137a82611339565b602082019050919050565b6000602082019050818103600083015261139e81611362565b9050919050565b60008190508160005260206000209050919050565b60006020601f8301049050919050565b600082821b905092915050565b6000600883026114077fffffffffffffffffffffffffffffffffffffffffffffffffffffffffffffffff826113ca565b61141186836113ca565b95508019841693508086168417925050509392505050565b6000819050919050565b600061144e61144961144484610ba4565b611429565b610ba4565b9050919050565b6000819050919050565b61146883611433565b61147c61147482611455565b8484546113d7565b825550505050565b600090565b611491611484565b61149c81848461145f565b505050565b5b818110156114c0576114b5600082611489565b6001810190506114a2565b5050565b601f821115611505576114d6816113a5565b6114df846113ba565b810160208510156114ee578190505b6115026114fa856113ba565b8301826114a1565b50505b505050565b600082821c905092915050565b60006115286000198460080261150a565b1980831691505092915050565b60006115418383611517565b9150826002028217905092915050565b61155a82610c16565b67ffffffffffffffff81111561157357611572610e8f565b5b61157d82546112d9565b6115888282856114c4565b600060209050601f8311600181146115bb57600084156115a9578287015190505b6115b38582611535565b86555061161b565b601f1984166115c9866113a5565b60005b828110156115f1578489015182556001820191506020850194506020810190506115cc565b8683101561160e578489015161160a601f891682611517565b8355505b6001600288020188555050505b505050505050565b7f4e487b7100000000000000000000000000000000000000000000000000000000600052601160045260246000fd5b600061165d82610ba4565b91507fffffffffffffffffffffffffffffffffffffffffffffffffffffffffffffffff820361168f5761168e611623565b5b600182019050919050565b60006116a582610ba4565b91506116b083610ba4565b92508282039050818111156116c8576116c7611623565b5b92915050565b6000815490506116dd816112d9565b9050919050565b8181036116f25750506117ca565b6116fb826116ce565b67ffffffffffffffff81111561171457611713610e8f565b5b61171e82546112d9565b6117298282856114c4565b6000601f8311600181146117585760008415611746578287015490505b6117508582611535565b8655506117c3565b601f198416611766876113a5565b9650611771866113a5565b60005b8281101561179957848901548255600182019150600185019450602081019050611774565b868310156117b657848901546117b2601f891682611517565b8355505b6001600288020188555050505b5050505050505b565b7f4e487b7100000000000000000000000000000000000000000000000000000000600052603160045260246000fdfea26469706673582212200712e2fccac684181f8f6ad1fb780168288059b66d94bf38ac43fd27b4e4181264736f6c634300081c0033",
  "linkReferences": {},
  "deployedLinkReferences": {}
}