{"abi":[{"type":"constructor","inputs":[{"name":"initialOwner","type":"address","internalType":"address"}],"stateMutability":"nonpayable"},{"type":"function","name":"DEFAULT_ADMIN_ROLE","inputs":[],"outputs":[{"name":"","type":"bytes32","internalType":"bytes32"}],"stateMutability":"view"},{"type":"function","name":"MINTER_ROLE","inputs":[],"outputs":[{"name":"","type":"bytes32","internalType":"bytes32"}],"stateMutability":"view"},{"type":"function","name":"approve","inputs":[{"name":"to","type":"address","internalType":"address"},{"name":"tokenId","type":"uint256","internalType":"uint256"}],"outputs":[],"stateMutability":"nonpayable"},{"type":"function","name":"balanceOf","inputs":[{"name":"owner","type":"address","internalType":"address"}],"outputs":[{"name":"","type":"uint256","internalType":"uint256"}],"stateMutability":"view"},{"type":"function","name":"getApproved","inputs":[{"name":"tokenId","type":"uint256","internalType":"uint256"}],"outputs":[{"name":"","type":"address","internalType":"address"}],"stateMutability":"view"},{"type":"function","name":"getRoleAdmin","inputs":[{"name":"role","type":"bytes32","internalType":"bytes32"}],"outputs":[{"name":"","type":"bytes32","internalType":"bytes32"}],"stateMutability":"view"},{"type":"function","name":"grantRole","inputs":[{"name":"role","type":"bytes32","internalType":"bytes32"},{"name":"account","type":"address","internalType":"address"}],"outputs":[],"stateMutability":"nonpayable"},{"type":"function","name":"hasRole","inputs":[{"name":"role","type":"bytes32","internalType":"bytes32"},{"name":"account","type":"address","internalType":"address"}],"outputs":[{"name":"","type":"bool","internalType":"bool"}],"stateMutability":"view"},{"type":"function","name":"isApprovedForAll","inputs":[{"name":"owner","type":"address","internalType":"address"},{"name":"operator","type":"address","internalType":"address"}],"outputs":[{"name":"","type":"bool","internalType":"bool"}],"stateMutability":"view"},{"type":"function","name":"name","inputs":[],"outputs":[{"name":"","type":"string","internalType":"string"}],"stateMutability":"view"},{"type":"function","name":"ownerOf","inputs":[{"name":"tokenId","type":"uint256","internalType":"uint256"}],"outputs":[{"name":"","type":"address","internalType":"address"}],"stateMutability":"view"},{"type":"function","name":"renounceRole","inputs":[{"name":"role","type":"bytes32","internalType":"bytes32"},{"name":"callerConfirmation","type":"address","internalType":"address"}],"outputs":[],"stateMutability":"nonpayable"},{"type":"function","name":"revokeRole","inputs":[{"name":"role","type":"bytes32","internalType":"bytes32"},{"name":"account","type":"address","internalType":"address"}],"outputs":[],"stateMutability":"nonpayable"},{"type":"function","name":"safeMint","inputs":[{"name":"to","type":"address","internalType":"address"},{"name":"tokenId","type":"uint256","internalType":"uint256"}],"outputs":[],"stateMutability":"nonpayable"},{"type":"function","name":"safeTransferFrom","inputs":[{"name":"from","type":"address","internalType":"address"},{"name":"to","type":"address","internalType":"address"},{"name":"tokenId","type":"uint256","internalType":"uint256"}],"outputs":[],"stateMutability":"nonpayable"},{"type":"function","name":"safeTransferFrom","inputs":[{"name":"from","type":"address","internalType":"address"},{"name":"to","type":"address","internalType":"address"},{"name":"tokenId","type":"uint256","internalType":"uint256"},{"name":"data","type":"bytes","internalType":"bytes"}],"outputs":[],"stateMutability":"nonpayable"},{"type":"function","name":"setApprovalForAll","inputs":[{"name":"operator","type":"address","internalType":"address"},{"name":"approved","type":"bool","internalType":"bool"}],"outputs":[],"stateMutability":"nonpayable"},{"type":"function","name":"supportsInterface","inputs":[{"name":"interfaceId","type":"bytes4","internalType":"bytes4"}],"outputs":[{"name":"","type":"bool","internalType":"bool"}],"stateMutability":"view"},{"type":"function","name":"symbol","inputs":[],"outputs":[{"name":"","type":"string","internalType":"string"}],"stateMutability":"view"},{"type":"function","name":"tokenURI","inputs":[{"name":"tokenId","type":"uint256","internalType":"uint256"}],"outputs":[{"name":"","type":"string","internalType":"string"}],"stateMutability":"view"},{"type":"function","name":"transferFrom","inputs":[{"name":"from","type":"address","internalType":"address"},{"name":"to","type":"address","internalType":"address"},{"name":"tokenId","type":"uint256","internalType":"uint256"}],"outputs":[],"stateMutability":"nonpayable"},{"type":"event","name":"Approval","inputs":[{"name":"owner","type":"address","indexed":true,"internalType":"address"},{"name":"approved","type":"address","indexed":true,"internalType":"address"},{"name":"tokenId","type":"uint256","indexed":true,"internalType":"uint256"}],"anonymous":false},{"type":"event","name":"ApprovalForAll","inputs":[{"name":"owner","type":"address","indexed":true,"internalType":"address"},{"name":"operator","type":"address","indexed":true,"internalType":"address"},{"name":"approved","type":"bool","indexed":false,"internalType":"bool"}],"anonymous":false},{"type":"event","name":"RoleAdminChanged","inputs":[{"name":"role","type":"bytes32","indexed":true,"internalType":"bytes32"},{"name":"previousAdminRole","type":"bytes32","indexed":true,"internalType":"bytes32"},{"name":"newAdminRole","type":"bytes32","indexed":true,"internalType":"bytes32"}],"anonymous":false},{"type":"event","name":"RoleGranted","inputs":[{"name":"role","type":"bytes32","indexed":true,"internalType":"bytes32"},{"name":"account","type":"address","indexed":true,"internalType":"address"},{"name":"sender","type":"address","indexed":true,"internalType":"address"}],"anonymous":false},{"type":"event","name":"RoleRevoked","inputs":[{"name":"role","type":"bytes32","indexed":true,"internalType":"bytes32"},{"name":"account","type":"address","indexed":true,"internalType":"address"},{"name":"sender","type":"address","indexed":true,"internalType":"address"}],"anonymous":false},{"type":"event","name":"Transfer","inputs":[{"name":"from","type":"address","indexed":true,"internalType":"address"},{"name":"to","type":"address","indexed":true,"internalType":"address"},{"name":"tokenId","type":"uint256","indexed":true,"internalType":"uint256"}],"anonymous":false},{"type":"error","name":"AccessControlBadConfirmation","inputs":[]},{"type":"error","name":"AccessControlUnauthorizedAccount","inputs":[{"name":"account","type":"address","internalType":"address"},{"name":"neededRole","type":"bytes32","internalType":"bytes32"}]},{"type":"error","name":"ERC721IncorrectOwner","inputs":[{"name":"sender","type":"address","internalType":"address"},{"name":"tokenId","type":"uint256","internalType":"uint256"},{"name":"owner","type":"address","internalType":"address"}]},{"type":"error","name":"ERC721InsufficientApproval","inputs":[{"name":"operator","type":"address","internalType":"address"},{"name":"tokenId","type":"uint256","internalType":"uint256"}]},{"type":"error","name":"ERC721InvalidApprover","inputs":[{"name":"approver","type":"address","internalType":"address"}]},{"type":"error","name":"ERC721InvalidOperator","inputs":[{"name":"operator","type":"address","internalType":"address"}]},{"type":"error","name":"ERC721InvalidOwner","inputs":[{"name":"owner","type":"address","internalType":"address"}]},{"type":"error","name":"ERC721InvalidReceiver","inputs":[{"name":"receiver","type":"address","internalType":"address"}]},{"type":"error","name":"ERC721InvalidSender","inputs":[{"name":"sender","type":"address","internalType":"address"}]},{"type":"error","name":"ERC721NonexistentToken","inputs":[{"name":"tokenId","type":"uint256","internalType":"uint256"}]}],"bytecode":{"object":"0x608060405234801561000f575f5ffd5b506040516129c93803806129c9833981810160405281019061003191906102c7565b6040518060400160405280600581526020017f4d794e66740000000000000000000000000000000000000000000000000000008152506040518060400160405280600381526020017f4d4e740000000000000000000000000000000000000000000000000000000000815250815f90816100ab919061052f565b5080600190816100bb919061052f565b5050506100d05f5f1b8261010860201b60201c565b506101017f9f2df0fed2c77648de5860a4cc508cd0818c85b8b8a1ab4ceeef8d981c8956a68261010860201b60201c565b50506105fe565b5f61011983836101fe60201b60201c565b6101f457600160065f8581526020019081526020015f205f015f8473ffffffffffffffffffffffffffffffffffffffff1673ffffffffffffffffffffffffffffffffffffffff1681526020019081526020015f205f6101000a81548160ff02191690831515021790555061019161026260201b60201c565b73ffffffffffffffffffffffffffffffffffffffff168273ffffffffffffffffffffffffffffffffffffffff16847f2f8788117e7eff1d82e926ec794901d17c78024a50270940304540a733656f0d60405160405180910390a4600190506101f8565b5f90505b92915050565b5f60065f8481526020019081526020015f205f015f8373ffffffffffffffffffffffffffffffffffffffff1673ffffffffffffffffffffffffffffffffffffffff1681526020019081526020015f205f9054906101000a900460ff16905092915050565b5f33905090565b5f5ffd5b5f73ffffffffffffffffffffffffffffffffffffffff82169050919050565b5f6102968261026d565b9050919050565b6102a68161028c565b81146102b0575f5ffd5b50565b5f815190506102c18161029d565b92915050565b5f602082840312156102dc576102db610269565b5b5f6102e9848285016102b3565b91505092915050565b5f81519050919050565b7f4e487b71000000000000000000000000000000000000000000000000000000005f52604160045260245ffd5b7f4e487b71000000000000000000000000000000000000000000000000000000005f52602260045260245ffd5b5f600282049050600182168061036d57607f821691505b6020821081036103805761037f610329565b5b50919050565b5f819050815f5260205f209050919050565b5f6020601f8301049050919050565b5f82821b905092915050565b5f600883026103e27fffffffffffffffffffffffffffffffffffffffffffffffffffffffffffffffff826103a7565b6103ec86836103a7565b95508019841693508086168417925050509392505050565b5f819050919050565b5f819050919050565b5f61043061042b61042684610404565b61040d565b610404565b9050919050565b5f819050919050565b61044983610416565b61045d61045582610437565b8484546103b3565b825550505050565b5f5f905090565b610474610465565b61047f818484610440565b505050565b5b818110156104a2576104975f8261046c565b600181019050610485565b5050565b601f8211156104e7576104b881610386565b6104c184610398565b810160208510156104d0578190505b6104e46104dc85610398565b830182610484565b50505b505050565b5f82821c905092915050565b5f6105075f19846008026104ec565b1980831691505092915050565b5f61051f83836104f8565b9150826002028217905092915050565b610538826102f2565b67ffffffffffffffff811115610551576105506102fc565b5b61055b8254610356565b6105668282856104a6565b5f60209050601f831160018114610597575f8415610585578287015190505b61058f8582610514565b8655506105f6565b601f1984166105a586610386565b5f5b828110156105cc578489015182556001820191506020850194506020810190506105a7565b868310156105e957848901516105e5601f8916826104f8565b8355505b6001600288020188555050505b505050505050565b6123be8061060b5f395ff3fe608060405234801561000f575f5ffd5b5060043610610135575f3560e01c806370a08231116100b6578063a22cb4651161007a578063a22cb4651461035b578063b88d4fde14610377578063c87b56dd14610393578063d5391393146103c3578063d547741f146103e1578063e985e9c5146103fd57610135565b806370a08231146102a357806391d14854146102d357806395d89b4114610303578063a144819414610321578063a217fddf1461033d57610135565b8063248a9ca3116100fd578063248a9ca3146101ef5780632f2ff15d1461021f57806336568abe1461023b57806342842e0e146102575780636352211e1461027357610135565b806301ffc9a71461013957806306fdde0314610169578063081812fc14610187578063095ea7b3146101b757806323b872dd146101d3575b5f5ffd5b610153600480360381019061014e9190611b7e565b61042d565b6040516101609190611bc3565b60405180910390f35b61017161043e565b60405161017e9190611c4c565b60405180910390f35b6101a1600480360381019061019c9190611c9f565b6104cd565b6040516101ae9190611d09565b60405180910390f35b6101d160048036038101906101cc9190611d4c565b6104e8565b005b6101ed60048036038101906101e89190611d8a565b6104fe565b005b61020960048036038101906102049190611e0d565b6105fd565b6040516102169190611e47565b60405180910390f35b61023960048036038101906102349190611e60565b61061a565b005b61025560048036038101906102509190611e60565b61063c565b005b610271600480360381019061026c9190611d8a565b6106b7565b005b61028d60048036038101906102889190611c9f565b6106d6565b60405161029a9190611d09565b60405180910390f35b6102bd60048036038101906102b89190611e9e565b6106e7565b6040516102ca9190611ed8565b60405180910390f35b6102ed60048036038101906102e89190611e60565b61079d565b6040516102fa9190611bc3565b60405180910390f35b61030b610801565b6040516103189190611c4c565b60405180910390f35b61033b60048036038101906103369190611d4c565b610891565b005b6103456108ca565b6040516103529190611e47565b60405180910390f35b61037560048036038101906103709190611f1b565b6108d0565b005b610391600480360381019061038c9190612085565b6108e6565b005b6103ad60048036038101906103a89190611c9f565b61090b565b6040516103ba9190611c4c565b60405180910390f35b6103cb610971565b6040516103d89190611e47565b60405180910390f35b6103fb60048036038101906103f69190611e60565b610995565b005b61041760048036038101906104129190612105565b6109b7565b6040516104249190611bc3565b60405180910390f35b5f61043782610a45565b9050919050565b60605f805461044c90612170565b80601f016020809104026020016040519081016040528092919081815260200182805461047890612170565b80156104c35780601f1061049a576101008083540402835291602001916104c3565b820191905f5260205f20905b8154815290600101906020018083116104a657829003601f168201915b5050505050905090565b5f6104d782610abe565b506104e182610b44565b9050919050565b6104fa82826104f5610b7d565b610b84565b5050565b5f73ffffffffffffffffffffffffffffffffffffffff168273ffffffffffffffffffffffffffffffffffffffff160361056e575f6040517f64a0ae920000000000000000000000000000000000000000000000000000000081526004016105659190611d09565b60405180910390fd5b5f610581838361057c610b7d565b610b96565b90508373ffffffffffffffffffffffffffffffffffffffff168173ffffffffffffffffffffffffffffffffffffffff16146105f7578382826040517f64283d7b0000000000000000000000000000000000000000000000000000000081526004016105ee939291906121a0565b60405180910390fd5b50505050565b5f60065f8381526020019081526020015f20600101549050919050565b610623826105fd565b61062c81610da1565b6106368383610db5565b50505050565b610644610b7d565b73ffffffffffffffffffffffffffffffffffffffff168173ffffffffffffffffffffffffffffffffffffffff16146106a8576040517f6697b23200000000000000000000000000000000000000000000000000000000815260040160405180910390fd5b6106b28282610e9f565b505050565b6106d183838360405180602001604052805f8152506108e6565b505050565b5f6106e082610abe565b9050919050565b5f5f73ffffffffffffffffffffffffffffffffffffffff168273ffffffffffffffffffffffffffffffffffffffff1603610758575f6040517f89c62b6400000000000000000000000000000000000000000000000000000000815260040161074f9190611d09565b60405180910390fd5b60035f8373ffffffffffffffffffffffffffffffffffffffff1673ffffffffffffffffffffffffffffffffffffffff1681526020019081526020015f20549050919050565b5f60065f8481526020019081526020015f205f015f8373ffffffffffffffffffffffffffffffffffffffff1673ffffffffffffffffffffffffffffffffffffffff1681526020019081526020015f205f9054906101000a900460ff16905092915050565b60606001805461081090612170565b80601f016020809104026020016040519081016040528092919081815260200182805461083c90612170565b80156108875780601f1061085e57610100808354040283529160200191610887565b820191905f5260205f20905b81548152906001019060200180831161086a57829003601f168201915b5050505050905090565b7f9f2df0fed2c77648de5860a4cc508cd0818c85b8b8a1ab4ceeef8d981c8956a66108bb81610da1565b6108c58383610f89565b505050565b5f5f1b81565b6108e26108db610b7d565b8383610fa6565b5050565b6108f18484846104fe565b6109056108fc610b7d565b8585858561110f565b50505050565b606061091682610abe565b505f6109206112bb565b90505f81511161093e5760405180602001604052805f815250610969565b80610948846112d1565b60405160200161095992919061220f565b6040516020818303038152906040525b915050919050565b7f9f2df0fed2c77648de5860a4cc508cd0818c85b8b8a1ab4ceeef8d981c8956a681565b61099e826105fd565b6109a781610da1565b6109b18383610e9f565b50505050565b5f60055f8473ffffffffffffffffffffffffffffffffffffffff1673ffffffffffffffffffffffffffffffffffffffff1681526020019081526020015f205f8373ffffffffffffffffffffffffffffffffffffffff1673ffffffffffffffffffffffffffffffffffffffff1681526020019081526020015f205f9054906101000a900460ff16905092915050565b5f7f7965db0b000000000000000000000000000000000000000000000000000000007bffffffffffffffffffffffffffffffffffffffffffffffffffffffff1916827bffffffffffffffffffffffffffffffffffffffffffffffffffffffff19161480610ab75750610ab68261139b565b5b9050919050565b5f5f610ac98361147c565b90505f73ffffffffffffffffffffffffffffffffffffffff168173ffffffffffffffffffffffffffffffffffffffff1603610b3b57826040517f7e273289000000000000000000000000000000000000000000000000000000008152600401610b329190611ed8565b60405180910390fd5b80915050919050565b5f60045f8381526020019081526020015f205f9054906101000a900473ffffffffffffffffffffffffffffffffffffffff169050919050565b5f33905090565b610b9183838360016114b5565b505050565b5f5f610ba18461147c565b90505f73ffffffffffffffffffffffffffffffffffffffff168373ffffffffffffffffffffffffffffffffffffffff1614610be257610be1818486611674565b5b5f73ffffffffffffffffffffffffffffffffffffffff168173ffffffffffffffffffffffffffffffffffffffff1614610c6d57610c215f855f5f6114b5565b600160035f8373ffffffffffffffffffffffffffffffffffffffff1673ffffffffffffffffffffffffffffffffffffffff1681526020019081526020015f205f82825403925050819055505b5f73ffffffffffffffffffffffffffffffffffffffff168573ffffffffffffffffffffffffffffffffffffffff1614610cec57600160035f8773ffffffffffffffffffffffffffffffffffffffff1673ffffffffffffffffffffffffffffffffffffffff1681526020019081526020015f205f82825401925050819055505b8460025f8681526020019081526020015f205f6101000a81548173ffffffffffffffffffffffffffffffffffffffff021916908373ffffffffffffffffffffffffffffffffffffffff160217905550838573ffffffffffffffffffffffffffffffffffffffff168273ffffffffffffffffffffffffffffffffffffffff167fddf252ad1be2c89b69c2b068fc378daa952ba7f163c4a11628f55a4df523b3ef60405160405180910390a4809150509392505050565b610db281610dad610b7d565b611737565b50565b5f610dc0838361079d565b610e9557600160065f8581526020019081526020015f205f015f8473ffffffffffffffffffffffffffffffffffffffff1673ffffffffffffffffffffffffffffffffffffffff1681526020019081526020015f205f6101000a81548160ff021916908315150217905550610e32610b7d565b73ffffffffffffffffffffffffffffffffffffffff168273ffffffffffffffffffffffffffffffffffffffff16847f2f8788117e7eff1d82e926ec794901d17c78024a50270940304540a733656f0d60405160405180910390a460019050610e99565b5f90505b92915050565b5f610eaa838361079d565b15610f7f575f60065f8581526020019081526020015f205f015f8473ffffffffffffffffffffffffffffffffffffffff1673ffffffffffffffffffffffffffffffffffffffff1681526020019081526020015f205f6101000a81548160ff021916908315150217905550610f1c610b7d565b73ffffffffffffffffffffffffffffffffffffffff168273ffffffffffffffffffffffffffffffffffffffff16847ff6391f5c32d9c69d2a47ea670b442974b53935d1edc7fd64eb21e047a839171b60405160405180910390a460019050610f83565b5f90505b92915050565b610fa2828260405180602001604052805f815250611788565b5050565b5f73ffffffffffffffffffffffffffffffffffffffff168273ffffffffffffffffffffffffffffffffffffffff160361101657816040517f5b08ba1800000000000000000000000000000000000000000000000000000000815260040161100d9190611d09565b60405180910390fd5b8060055f8573ffffffffffffffffffffffffffffffffffffffff1673ffffffffffffffffffffffffffffffffffffffff1681526020019081526020015f205f8473ffffffffffffffffffffffffffffffffffffffff1673ffffffffffffffffffffffffffffffffffffffff1681526020019081526020015f205f6101000a81548160ff0219169083151502179055508173ffffffffffffffffffffffffffffffffffffffff168373ffffffffffffffffffffffffffffffffffffffff167f17307eab39ab6107e8899845ad3d59bd9653f200f220920489ca2b5937696c31836040516111029190611bc3565b60405180910390a3505050565b5f8373ffffffffffffffffffffffffffffffffffffffff163b11156112b4578273ffffffffffffffffffffffffffffffffffffffff1663150b7a02868685856040518563ffffffff1660e01b815260040161116d9493929190612284565b6020604051808303815f875af19250505080156111a857506040513d601f19601f820116820180604052508101906111a591906122e2565b60015b611229573d805f81146111d6576040519150601f19603f3d011682016040523d82523d5f602084013e6111db565b606091505b505f81510361122157836040517f64a0ae920000000000000000000000000000000000000000000000000000000081526004016112189190611d09565b60405180910390fd5b805160208201fd5b63150b7a0260e01b7bffffffffffffffffffffffffffffffffffffffffffffffffffffffff1916817bffffffffffffffffffffffffffffffffffffffffffffffffffffffff1916146112b257836040517f64a0ae920000000000000000000000000000000000000000000000000000000081526004016112a99190611d09565b60405180910390fd5b505b5050505050565b606060405180602001604052805f815250905090565b60605f60016112df846117ab565b0190505f8167ffffffffffffffff8111156112fd576112fc611f61565b5b6040519080825280601f01601f19166020018201604052801561132f5781602001600182028036833780820191505090505b5090505f82602083010190505b600115611390578080600190039150507f3031323334353637383961626364656600000000000000000000000000000000600a86061a8153600a85816113855761138461230d565b5b0494505f850361133c575b819350505050919050565b5f7f80ac58cd000000000000000000000000000000000000000000000000000000007bffffffffffffffffffffffffffffffffffffffffffffffffffffffff1916827bffffffffffffffffffffffffffffffffffffffffffffffffffffffff1916148061146557507f5b5e139f000000000000000000000000000000000000000000000000000000007bffffffffffffffffffffffffffffffffffffffffffffffffffffffff1916827bffffffffffffffffffffffffffffffffffffffffffffffffffffffff1916145b806114755750611474826118fc565b5b9050919050565b5f60025f8381526020019081526020015f205f9054906101000a900473ffffffffffffffffffffffffffffffffffffffff169050919050565b80806114ed57505f73ffffffffffffffffffffffffffffffffffffffff168273ffffffffffffffffffffffffffffffffffffffff1614155b1561161f575f6114fc84610abe565b90505f73ffffffffffffffffffffffffffffffffffffffff168373ffffffffffffffffffffffffffffffffffffffff161415801561156657508273ffffffffffffffffffffffffffffffffffffffff168173ffffffffffffffffffffffffffffffffffffffff1614155b8015611579575061157781846109b7565b155b156115bb57826040517fa9fbf51f0000000000000000000000000000000000000000000000000000000081526004016115b29190611d09565b60405180910390fd5b811561161d57838573ffffffffffffffffffffffffffffffffffffffff168273ffffffffffffffffffffffffffffffffffffffff167f8c5be1e5ebec7d5bd14f71427d1e84f3dd0314c0f7b2291e5b200ac8c7c3b92560405160405180910390a45b505b8360045f8581526020019081526020015f205f6101000a81548173ffffffffffffffffffffffffffffffffffffffff021916908373ffffffffffffffffffffffffffffffffffffffff16021790555050505050565b61167f838383611965565b611732575f73ffffffffffffffffffffffffffffffffffffffff168373ffffffffffffffffffffffffffffffffffffffff16036116f357806040517f7e2732890000000000000000000000000000000000000000000000000000000081526004016116ea9190611ed8565b60405180910390fd5b81816040517f177e802f00000000000000000000000000000000000000000000000000000000815260040161172992919061233a565b60405180910390fd5b505050565b611741828261079d565b6117845780826040517fe2517d3f00000000000000000000000000000000000000000000000000000000815260040161177b929190612361565b60405180910390fd5b5050565b6117928383611a25565b6117a661179d610b7d565b5f85858561110f565b505050565b5f5f5f90507a184f03e93ff9f4daa797ed6e38ed64bf6a1f0100000000000000008310611807577a184f03e93ff9f4daa797ed6e38ed64bf6a1f01000000000000000083816117fd576117fc61230d565b5b0492506040810190505b6d04ee2d6d415b85acef81000000008310611844576d04ee2d6d415b85acef8100000000838161183a5761183961230d565b5b0492506020810190505b662386f26fc10000831061187357662386f26fc1000083816118695761186861230d565b5b0492506010810190505b6305f5e100831061189c576305f5e10083816118925761189161230d565b5b0492506008810190505b61271083106118c15761271083816118b7576118b661230d565b5b0492506004810190505b606483106118e457606483816118da576118d961230d565b5b0492506002810190505b600a83106118f3576001810190505b80915050919050565b5f7f01ffc9a7000000000000000000000000000000000000000000000000000000007bffffffffffffffffffffffffffffffffffffffffffffffffffffffff1916827bffffffffffffffffffffffffffffffffffffffffffffffffffffffff1916149050919050565b5f5f73ffffffffffffffffffffffffffffffffffffffff168373ffffffffffffffffffffffffffffffffffffffff1614158015611a1c57508273ffffffffffffffffffffffffffffffffffffffff168473ffffffffffffffffffffffffffffffffffffffff1614806119dd57506119dc84846109b7565b5b80611a1b57508273ffffffffffffffffffffffffffffffffffffffff16611a0383610b44565b73ffffffffffffffffffffffffffffffffffffffff16145b5b90509392505050565b5f73ffffffffffffffffffffffffffffffffffffffff168273ffffffffffffffffffffffffffffffffffffffff1603611a95575f6040517f64a0ae92000000000000000000000000000000000000000000000000000000008152600401611a8c9190611d09565b60405180910390fd5b5f611aa183835f610b96565b90505f73ffffffffffffffffffffffffffffffffffffffff168173ffffffffffffffffffffffffffffffffffffffff1614611b13575f6040517f73c6ac6e000000000000000000000000000000000000000000000000000000008152600401611b0a9190611d09565b60405180910390fd5b505050565b5f604051905090565b5f5ffd5b5f5ffd5b5f7fffffffff0000000000000000000000000000000000000000000000000000000082169050919050565b611b5d81611b29565b8114611b67575f5ffd5b50565b5f81359050611b7881611b54565b92915050565b5f60208284031215611b9357611b92611b21565b5b5f611ba084828501611b6a565b91505092915050565b5f8115159050919050565b611bbd81611ba9565b82525050565b5f602082019050611bd65f830184611bb4565b92915050565b5f81519050919050565b5f82825260208201905092915050565b8281835e5f83830152505050565b5f601f19601f8301169050919050565b5f611c1e82611bdc565b611c288185611be6565b9350611c38818560208601611bf6565b611c4181611c04565b840191505092915050565b5f6020820190508181035f830152611c648184611c14565b905092915050565b5f819050919050565b611c7e81611c6c565b8114611c88575f5ffd5b50565b5f81359050611c9981611c75565b92915050565b5f60208284031215611cb457611cb3611b21565b5b5f611cc184828501611c8b565b91505092915050565b5f73ffffffffffffffffffffffffffffffffffffffff82169050919050565b5f611cf382611cca565b9050919050565b611d0381611ce9565b82525050565b5f602082019050611d1c5f830184611cfa565b92915050565b611d2b81611ce9565b8114611d35575f5ffd5b50565b5f81359050611d4681611d22565b92915050565b5f5f60408385031215611d6257611d61611b21565b5b5f611d6f85828601611d38565b9250506020611d8085828601611c8b565b9150509250929050565b5f5f5f60608486031215611da157611da0611b21565b5b5f611dae86828701611d38565b9350506020611dbf86828701611d38565b9250506040611dd086828701611c8b565b9150509250925092565b5f819050919050565b611dec81611dda565b8114611df6575f5ffd5b50565b5f81359050611e0781611de3565b92915050565b5f60208284031215611e2257611e21611b21565b5b5f611e2f84828501611df9565b91505092915050565b611e4181611dda565b82525050565b5f602082019050611e5a5f830184611e38565b92915050565b5f5f60408385031215611e7657611e75611b21565b5b5f611e8385828601611df9565b9250506020611e9485828601611d38565b9150509250929050565b5f60208284031215611eb357611eb2611b21565b5b5f611ec084828501611d38565b91505092915050565b611ed281611c6c565b82525050565b5f602082019050611eeb5f830184611ec9565b92915050565b611efa81611ba9565b8114611f04575f5ffd5b50565b5f81359050611f1581611ef1565b92915050565b5f5f60408385031215611f3157611f30611b21565b5b5f611f3e85828601611d38565b9250506020611f4f85828601611f07565b9150509250929050565b5f5ffd5b5f5ffd5b7f4e487b71000000000000000000000000000000000000000000000000000000005f52604160045260245ffd5b611f9782611c04565b810181811067ffffffffffffffff82111715611fb657611fb5611f61565b5b80604052505050565b5f611fc8611b18565b9050611fd48282611f8e565b919050565b5f67ffffffffffffffff821115611ff357611ff2611f61565b5b611ffc82611c04565b9050602081019050919050565b828183375f83830152505050565b5f61202961202484611fd9565b611fbf565b90508281526020810184848401111561204557612044611f5d565b5b612050848285612009565b509392505050565b5f82601f83011261206c5761206b611f59565b5b813561207c848260208601612017565b91505092915050565b5f5f5f5f6080858703121561209d5761209c611b21565b5b5f6120aa87828801611d38565b94505060206120bb87828801611d38565b93505060406120cc87828801611c8b565b925050606085013567ffffffffffffffff8111156120ed576120ec611b25565b5b6120f987828801612058565b91505092959194509250565b5f5f6040838503121561211b5761211a611b21565b5b5f61212885828601611d38565b925050602061213985828601611d38565b9150509250929050565b7f4e487b71000000000000000000000000000000000000000000000000000000005f52602260045260245ffd5b5f600282049050600182168061218757607f821691505b60208210810361219a57612199612143565b5b50919050565b5f6060820190506121b35f830186611cfa565b6121c06020830185611ec9565b6121cd6040830184611cfa565b949350505050565b5f81905092915050565b5f6121e982611bdc565b6121f381856121d5565b9350612203818560208601611bf6565b80840191505092915050565b5f61221a82856121df565b915061222682846121df565b91508190509392505050565b5f81519050919050565b5f82825260208201905092915050565b5f61225682612232565b612260818561223c565b9350612270818560208601611bf6565b61227981611c04565b840191505092915050565b5f6080820190506122975f830187611cfa565b6122a46020830186611cfa565b6122b16040830185611ec9565b81810360608301526122c3818461224c565b905095945050505050565b5f815190506122dc81611b54565b92915050565b5f602082840312156122f7576122f6611b21565b5b5f612304848285016122ce565b91505092915050565b7f4e487b71000000000000000000000000000000000000000000000000000000005f52601260045260245ffd5b5f60408201905061234d5f830185611cfa565b61235a6020830184611ec9565b9392505050565b5f6040820190506123745f830185611cfa565b6123816020830184611e38565b939250505056fea2646970667358221220d226dfa86792aed8925c345236e3fcc0429a2d76041aab89c56c32866aa7833664736f6c634300081e0033","linkReferences":{}},"methodIdentifiers":{"DEFAULT_ADMIN_ROLE()":"a217fddf","MINTER_ROLE()":"d5391393","approve(address,uint256)":"095ea7b3","balanceOf(address)":"70a08231","getApproved(uint256)":"081812fc","getRoleAdmin(bytes32)":"248a9ca3","grantRole(bytes32,address)":"2f2ff15d","hasRole(bytes32,address)":"91d14854","isApprovedForAll(address,address)":"e985e9c5","name()":"06fdde03","ownerOf(uint256)":"6352211e","renounceRole(bytes32,address)":"36568abe","revokeRole(bytes32,address)":"d547741f","safeMint(address,uint256)":"a1448194","safeTransferFrom(address,address,uint256)":"42842e0e","safeTransferFrom(address,address,uint256,bytes)":"b88d4fde","setApprovalForAll(address,bool)":"a22cb465","supportsInterface(bytes4)":"01ffc9a7","symbol()":"95d89b41","tokenURI(uint256)":"c87b56dd","transferFrom(address,address,uint256)":"23b872dd"},"id":42}